:020000040000FA
:04000000F0EF00F02D
:100008005C82FACF4EF0FBCF4FF0E9CF50F0EACF49
:1000180051F0E1CF52F0E2CF53F0D9CF54F0DACF1C
:1000280055F0F3CF56F0F4CF57F0F6CF58F0F7CF9E
:1000380059F0F8CF5AF0F5CF5BF0F2AC26EF00F0AC
:1000480028EF00F0D2EF00F0A0A82DEF00F02FEF7E
:1000580000F03AEF00F0A1A834EF00F036EF00F01E
:100068003AEF00F0DBECA8F0D2EF00F0A0A63FEFEB
:1000780000F041EF00F063EF00F0A1A646EF00F0BA
:1000880048EF00F063EF00F002D856EF00F00500EB
:10009800FA6E01014D51FD6E4E51FE6E4F51FF6ECD
:1000A800FA501200A1A65BEF00F05DEF00F0D2EF6E
:1000B80000F0000E1D6E010E1C6ED2EF00F09DA622
:1000C80068EF00F06AEF00F096EF00F09EA66FEF81
:1000D80000F071EF00F096EF00F002D87FEF00F02B
:1000E8000500FA6E01014D51FD6E4E51FE6E4F51E5
:1000F800FF6EFA5012009EA684EF00F086EF00F023
:10010800D2EF00F0010178057911D8A48EEF00F044
:1001180090EF00F0D2EF00F0000E796F000E786FCC
:10012800D2EF00F09DAA9BEF00F09DEF00F0B4EF36
:1001380000F09EAAA2EF00F0A4EF00F0B4EF00F0E8
:1001480002D8B2EF00F00500FA6E01013E51FD6ED3
:100158003F51FE6E4051FF6EFA501200D2EF00F090
:100168009DA8B9EF00F0BBEF00F0D2EF00F09EA819
:10017800C0EF00F0C2EF00F0D2EF00F002D8D0EFED
:1001880000F00500FA6E01013B51FD6E3C51FE6E18
:100198003D51FF6EFA501200D2EF00F05BC0F5FF40
:1001A8005AC0F8FF59C0F7FF58C0F6FF57C0F4FF10
:1001B80056C0F3FF55C0DAFF54C0D9FF53C0E2FF61
:1001C80052C0E1FF51C0EAFF50C0E9FF4FC0FBFF3A
:0C01D8004EC0FAFF5C92110094EFC1F0E1
:10FDEA0000DC9201609201509201807501EA7B0168
:10FDFA00D092014C810120930118930110930108BC
:10FE0A009301009301F89201F09201C49201E084F7
:10FE1A0001555AF148A0CB555AF14820C3555AF119
:10FE2A0048C0CD555AF14840C5555AF14880C9E2F3
:10FE3A00FE84FEB8FE41FE09024300020100C03200
:10FE4A000904000001020201000524001001042433
:10FE5A0002020524060001052401000107058103A9
:10FE6A000A000209040100020A0000000705020252
:10FE7A004000000705820240000034034D0069007B
:10FE8A00630072006F006300680069007000200060
:10FE9A0054006500630068006E006F006C006F001C
:10FEAA0067007900200049006E0063002E001203EB
:10FEBA006D006F0072006900740061006B006100E0
:10FECA001201000202000008D8040A00000101021F
:10FEDA000001555AF148688B0403090430782578E3
:10FEEA002C307825782C307825782C307825782C89
:10FEFA00307825782C307825780D0A00202D3E2080
:10FF0A004661696C20436F6D6D616E642121200D1D
:10FF1A000A0025352E316620DF432025352E31662D
:10FF2A002025250D0A0025362E31662068506120CD
:10FF3A0025352E31660D0A00202D3E204C454420E1
:10FF4A004F6666212120200D0A00202D3E204C45B7
:10FF5A0044204F6E212120200D0A0025352E3166BE
:10FF6A00DF432025352E316625250025362E3166BC
:10FF7A00206850612025352E316600483A257820C0
:10FF8A004C3A25780D0A00526563656976650D0A53
:10FF9A0000686174656E610D0A00423A3078253056
:10FFAA00347800473A30782530347800493A307846
:10FFBA002530347800523A307825303478006B6135
:10FFCA0064656E0D0A004E45430D0A0031300D0A74
:10FFDA000031310D0A003230323000494E46004EAF
:10FFEA00414E00696E66006E616E006C66003130CB
:05FFFA0000303500009D
:020000040001F9
:10000000000E0001C26F000EC16F9DC0D3F09EC0F4
:10001000D4F09FC0D5F0A0C0D6F0D6BF14EF80F0CA
:1000200012EF80F02AEF80F0000EC26F010EC16F58
:10003000D3C060F0D4C061F0D5C062F0D6C063F028
:10004000B9ECC6F060C0D3F061C0D4F062C0D5F0A6
:1000500063C0D6F0000E0001DA6F000ED96F52C1F6
:10006000C6F053C1C7F0C151C211D8A43AEF80F015
:100070003CEF80F043EF80F018A441EF80F043EFB5
:1000800080F05DEF80F0C151C211D8A44AEF80F03A
:100090004CEF80F052EF80F0000EAC6F2B0EAB6F88
:1000A00056EF80F0000EAC6F2D0EAB6FABC050F270
:1000B000D94BDA2BC607D8A0C707D3C060F0D4C08D
:1000C00061F0D5C062F0D6C063F03BECB7F0000140
:1000D00060056111D8A46FEF80F071EF80F0C8EF78
:1000E00080F0BF0EA26FFF0EA36FA151A46FA56B8E
:1000F000A251A427A351A523A5510AE11A0EA45D7C
:10010000D8A085EF80F088EF80F0010E89EF80F0B5
:10011000000EAD6FAE6BAD51AE11D8B492EF80F062
:1001200094EF80F0A2EF80F0500ED925606F020EA0
:10013000DA21616FE50E626FFF0E636F6AECC3F048
:10014000AEEF80F0500ED925606F020EDA21616F9C
:10015000ED0E626FFF0E636F6AECC3F00001FD0EDF
:10016000C627FF0EC7239BC072F09CC073F0500ED1
:100170000001746F020E756FC6C076F0C7C077F0CD
:100180005CECBAF072C09BF073C09CF0DEEF85F0BF
:10019000D3C060F0D4C061F0D5C062F0D6C063F0C7
:1001A0003BECB7F0000160516111D8A4DAEF80F0A8
:1001B000DCEF80F01BEF81F0BF0EA26FFF0EA36F8C
:1001C000A151A46FA56BA251A427A351A523A551AA
:1001D0000AE11A0EA45DD8A0F0EF80F0F3EF80F0F2
:1001E000010EF4EF80F0000EAF6FB06BAF51B011A5
:1001F000D8B4FDEF80F0FFEF80F00DEF81F0500EEE
:10020000D925606F020EDA21616FE90E626FFF0E71
:10021000636F6AECC3F0AEEF80F0500ED925606FCB
:10022000020EDA21616FF10E626FFF0E636F6AECEE
:10023000C3F0AEEF80F0000EDB6F000EDC6F800EBF
:10024000DD6F3F0EDE6F000ED86F000ED76FD3C08C
:1002500060F0D4C061F0D5C062F0D6C063F0000E8B
:10026000646F000E656F000E666F000E676F49ECDD
:10027000BDF00001D8B03FEF81F041EF81F0C6EF53
:1002800081F060EF81F0DBC060F0DCC061F0DDC0C8
:1002900062F0DEC063F0000E646F000E656F200E2A
:1002A000666F410E676F34EC96F060C0DBF061C0A2
:1002B000DCF062C0DDF063C0DEF00001D74BD82B6C
:1002C000D3C079F0D4C07AF0D5C07BF0D6C07CF032
:1002D000000E646F000E656F200E666F410E676F33
:1002E000DBC060F0DCC061F0DDC062F0DEC063F056
:1002F00034EC96F060C07DF061C07EF062C07FF0AB
:1003000063C080F02FECB5F00001D8B08AEF81F027
:100310008CEF81F043EF81F0ACEF81F0DBC06EF049
:10032000DCC06FF0DDC070F0DEC071F0000E726FE7
:10033000000E736F200E746F410E756F0FEC9EF000
:100340006EC0DBF06FC0DCF070C0DDF071C0DEF0BD
:100350000001D707D8A0D807D3C079F0D4C07AF06D
:10036000D5C07BF0D6C07CF0DBC07DF0DCC07EF079
:10037000DDC07FF0DEC080F02FECB5F00001D8A02A
:10038000C4EF81F0C6EF81F08EEF81F0A1C066F07E
:10039000676BD8ECC2F000016651C86FC8C0C5F0E9
:1003A000670EC819D8A4D7EF81F0D9EF81F0FFEF1D
:1003B00081F016501710D8A4E0EF81F0E2EF81F041
:1003C000E6EF81F0000E176E010E166E17BEF3EF0A
:1003D00081F0175006E11604D8B0F1EF81F0F3EF89
:1003E00081F0F9EF81F0000EC46F060EC36F08EFC5
:1003F00082F016C0C3F017C0C4F008EF82F017BE39
:1004000004EF82F006EF82F0F3EF81F0F9EF81F074
:10041000670EC819D8A40FEF82F011EF82F040EFF9
:1004200082F0D8AF1FEF82F0FC0ED75DFF0ED859D7
:10043000D8A01DEF82F01FEF82F03EEF82F0FF0E9A
:10044000A26FFF0EA36FC3C0A4F0C4C0A5F0A25159
:10045000A427A351A523D751A45DA551800AA66F57
:10046000D851800AA659D8A038EF82F03AEF82F02E
:100470003EEF82F0660EC56F40EF82F0650EC56FED
:10048000C3C0BBF0C4C0BCF0670EC819D8A44BEF02
:1004900082F04DEF82F05DEF82F0660EC519D8A4B0
:1004A00054EF82F056EF82F05FEF82F0D8BF5DEF3D
:1004B00082F05BEF82F05FEF82F0BB4BBC2B660EED
:1004C000C519D8A466EF82F068EF82F088EF82F059
:1004D000D8BF6FEF82F06DEF82F07BEF82F0000EFD
:1004E000DB6F000EDC6F800EDD6F3F0EDE6F000EE7
:1004F000D86F000ED76F670EC819D8B482EF82F09C
:1005000084EF82F088EF82F0D751BB27D851BC230B
:10051000000ED26F000ED16FD3C0C9F0D4C0CAF0A4
:10052000D5C0CBF0D6C0CCF0DBC0A7F0DCC0A8F0C3
:10053000DDC0A9F0DEC0AAF01AEF83F0C9C06EF0EA
:10054000CAC06FF0CBC070F0CCC071F0DBC072F0ED
:10055000DCC073F0DDC074F0DEC075F00FEC9EF00F
:100560006EC087F06FC088F070C089F071C08AF0EB
:10057000F7ECA9F087C0CDF088C0CEF089C0CFF0ED
:100580008AC0D0F0CDC060F0CEC061F0CFC062F0C4
:10059000D0C063F0ABECB4F060C0BFF061C0C0F09D
:1005A000C9C089F0CAC08AF0CBC08BF0CCC08CF037
:1005B000DBC064F0DCC065F0DDC066F0DEC067F073
:1005C000CDC060F0CEC061F0CFC062F0D0C063F0AB
:1005D00034EC96F060C08DF061C08EF062C08FF098
:1005E00063C090F055ECC5F089C0C9F08AC0CAF06C
:1005F0008BC0CBF08CC0CCF0DBC06EF0DCC06FF0F9
:10060000DDC070F0DEC071F0000E0001726F000EF0
:10061000736F200E746F410E756F0FEC9EF06EC0FD
:10062000DBF06FC0DCF070C0DDF071C0DEF0000107
:10063000D14BD22BBB51D15DD251800AA26FBC519C
:10064000800AA259D8A027EF83F029EF83F09EEF0C
:1006500082F0DBC060F0DCC061F0DDC062F0DEC0C3
:1006600063F0000E646F000E656FA00E666F400EA3
:10067000676F34EC96F060C0CDF061C0CEF062C020
:10068000CFF063C0D0F0C9C079F0CAC07AF0CBC057
:100690007BF0CCC07CF0CDC07DF0CEC07EF0CFC072
:1006A0007FF0D0C080F02FECB5F00001D8B05BEF48
:1006B00083F05DEF83F067EF83F0000ECD6F000EE7
:1006C000CE6F000ECF6F000ED06F90EF83F0C9C0D9
:1006D00060F0CAC061F0CBC062F0CCC063F0CDC0A6
:1006E00064F0CEC065F0CFC066F0D0C067F049ECD2
:1006F000BDF00001D8A07FEF83F081EF83F090EF91
:1007000083F0BFB186EF83F088EF83F090EF83F042
:10071000000ECD6F000ECE6F000ECF6F000ED06FAB
:10072000D3C079F0D4C07AF0D5C07BF0D6C07CF0CD
:10073000CDC07DF0CEC07EF0CFC07FF0D0C080F0C5
:100740001CEC8DF079C0C9F07AC0CAF07BC0CBF048
:100750007CC0CCF0A7C0DBF0A8C0DCF0A9C0DDF005
:10076000AAC0DEF0650E0001C519D8B4BAEF83F057
:10077000BCEF83F0C2EF83F0D7C0BDF0D8C0BEF0AD
:10078000C6EF83F0000EBE6F000EBD6F000EBA6F95
:10079000000EB96F000EB86F000EB76F000ED26F6B
:1007A000000ED16FC3EF84F0C9C06EF0CAC06FF005
:1007B000CBC070F0CCC071F0DBC072F0DCC073F065
:1007C000DDC074F0DEC075F00FEC9EF06EC087F0F7
:1007D0006FC088F070C089F071C08AF0F7ECA9F0A2
:1007E00087C0CDF088C0CEF089C0CFF08AC0D0F0ED
:1007F000CDC060F0CEC061F0CFC062F0D0C063F079
:10080000ABECB4F060C0BFF061C0C0F018B80BEF43
:1008100084F00DEF84F02BEF84F00001BF51C01184
:10082000D8A415EF84F017EF84F02BEF84F0670E57
:10083000C819D8A41EEF84F020EF84F02BEF84F0C9
:10084000BEBF27EF84F025EF84F02BEF84F0B74B89
:10085000B82B76EF84F00001B951BA11D8A433EF68
:1008600084F035EF84F05FEF84F0BEBF3CEF84F09E
:100870003AEF84F05FEF84F0500ED925D96E020E66
:10088000DA21DA6E2E0EDF6ED94BDA2BC607D8A02E
:10089000C707000EBA6F010EB96F5FEF84F0500EFC
:1008A000D925D96E020EDA21DA6E300EDF6ED94B01
:1008B000DA2BC607D8A0C707B707D8A0B807B75123
:1008C000B811D8A466EF84F068EF84F04FEF84F09D
:1008D000500ED925D96E020EDA21DA6EBF51300FD3
:1008E000DF6ED94BDA2BC607D8A0C707C9C089F07D
:1008F000CAC08AF0CBC08BF0CCC08CF0DBC064F0F7
:10090000DCC065F0DDC066F0DEC067F0CDC060F031
:10091000CEC061F0CFC062F0D0C063F034EC96F08E
:1009200060C08DF061C08EF062C08FF063C090F047
:1009300055ECC5F089C0C9F08AC0CAF08BC0CBF0B5
:100940008CC0CCF0DBC06EF0DCC06FF0DDC070F0AE
:10095000DEC071F0000E0001726F000E736F200E8A
:10096000746F410E756F0FEC9EF06EC0DBF06FC0C0
:10097000DCF070C0DDF071C0DEF00001BD07D8A072
:10098000BE07D14BD22BBB51D15DD251800AA26F91
:10099000BC51800AA259D8B0D0EF84F0D2EF84F0D5
:1009A000E0EF84F0DABFDEEF84F0DA5109E14B0EBC
:1009B000D95DD8A0DEEF84F0E0EF84F0D4EF83F0CF
:1009C000B951BA11D8A4E7EF84F0E9EF84F0FAEF57
:1009D00084F018A8EEEF84F0F0EF84F0FAEF84F0E2
:1009E000500ED925D96E020EDA21DA6E2E0EDF6E88
:1009F000D94BDA2B500ED925D96E020EDA21DA6ED8
:100A0000000EDF6E650EC519D8A409EF85F00BEF57
:100A100085F0B3EF80F0000ED26F4F0ED16F500E05
:100A2000D125D96E020ED221DA6E000EDF6E000ED5
:100A3000C26F000EC16FD8BF22EF85F020EF85F0A6
:100A40002AEF85F0000EC26F010EC16FD76DD81F5F
:100A5000D8B0D82B000EC46F020EC36F5CEF85F0C8
:100A6000D107D8A0D207500ED125D96E020ED221BF
:100A7000DA6ED7C060F0D8C061F0000E636F0A0E66
:100A8000626F41ECBCF000016051300FDF6ED7C0E7
:100A900060F0D8C061F0000E636F0A0E626F24EC44
:100AA000BBF060C0D7F061C0D8F00001C307D8A088
:100AB000C407C607D8A0C707D751D811D8A463EF79
:100AC00085F065EF85F030EF85F0C4BF72EF85F0FB
:100AD000C45106E1C305D8B070EF85F072EF85F020
:100AE00030EF85F0D107D8A0D207C151C211D8A4E8
:100AF0007CEF85F07EEF85F084EF85F0000EB26F1D
:100B00002B0EB16F88EF85F0000EB26F2D0EB16F16
:100B1000500ED125D96E020ED221DA6EB1C0DFFFA0
:100B2000C607D8A0C707D107D8A0D207BF0EA26FAB
:100B3000FF0EA36FA151A46FA56BA251A427A351CF
:100B4000A523A5510AE11A0EA45DD8A0AAEF85F04D
:100B5000ADEF85F0010EAEEF85F0000EB56FB66B10
:100B6000B551B611D8A4B7EF85F0B9EF85F0BFEF56
:100B700085F0000EB46F650EB36FC3EF85F0000E05
:100B8000B46F450EB36F500ED125D96E020ED2212F
:100B9000DA6EB3C0DFFFC607D8A0C707500ED9254D
:100BA000606F020EDA21616F500ED125626F020E66
:100BB000D221636F6AECC3F0B3EF80F01200E1C0A2
:100BC000D9FFE2C0DAFFDECFF6FFDDCFF7FF000E80
:100BD000F86E0800F550250AD8A4F1EF85F0F3EF80
:100BE00085F077EF89F0E1C0D9FFE2C0DAFFDE2AB5
:100BF000000EDD22000E0101536F000E526F52C134
:100C000018F053C119F016681768000E9E6F000E99
:100C10009D6F55EF86F01880E1C0D9FFE2C0DAFF82
:100C2000DE2A000EDD2255EF86F018820CEF86F0EA
:100C300018840CEF86F018860CEF86F018880CEFFD
:100C400086F0000E01019E6F010E9D6F55EF86F03C
:100C5000E1C0D9FFE2C0DAFFDECFF6FFDDCFF7FF5C
:100C6000000EF86E0800F5500001E56FE66BE651E6
:100C7000000AD8B43EEF86F021EF86F0E551200A55
:100C8000D8B41BEF86F0030AD8B41EEF86F0080A2A
:100C9000D8B418EF86F0060AD8B40BEF86F01D0A18
:100CA000D8B415EF86F021EF86F001019D519E1119
:100CB000D8B45DEF86F05FEF86F028EF86F018A0DD
:100CC00064EF86F066EF86F067EF86F01892E1C079
:100CD000D9FFE2C0DAFFDECFF6FFDDCFF7FF000E6F
:100CE000F86E0800F5502A0AD8A479EF86F07BEF59
:100CF00086F0A4EF86F0E1C0D9FFE2C0DAFFDE2A79
:100D0000000EDD22E3C0D9FFE4C0DAFFDFCFE5F05B
:100D1000020EDE26DFCFE6F0000EDD22E5C0D9FFB1
:100D2000E6C0DAFFDECF52F1DDCF53F153BF9DEFC6
:100D300086F09BEF86F0EBEF86F01880526D531F24
:100D4000D8B0532BEBEF86F0E1C0D9FFE2C0DAFF59
:100D5000DECF67F0DDCF68F0B4ECACF067C052F1E5
:100D600068C053F1BBEF86F0E1C0D9FFE2C0DAFF03
:100D7000DE2A000EDD22D00E0001E56FFF0EE66FC9
:100D8000E1C0D9FFE2C0DAFFDECFF6FFDDCFF7FF2B
:100D9000000EF86E0800F550E76FE86BE551E727A5
:100DA000E651E823E8510AE10A0EE75DD8A0DBEF3F
:100DB00086F0DEEF86F0010EDFEF86F0000E010117
:100DC0009F6FA06B9F51A011D8A4E9EF86F0EBEFC5
:100DD00086F0B4EF86F0E1C0D9FFE2C0DAFFDECFE3
:100DE000F6FFDDCFF7FF000EF86E0800F5502E0A73
:100DF000D8A4FDEF86F0FFEF86F082EF87F0000EBB
:100E0000176E000E166EE1C0D9FFE2C0DAFFDE2ACF
:100E1000000EDD22E1C0D9FFE2C0DAFFDECFF6FF2F
:100E2000DDCFF7FF000EF86E0800F5502A0AD8A4AF
:100E30001CEF87F01EEF87F03BEF87F0E1C0D9FF92
:100E4000E2C0DAFFDE2A000EDD22E3C0D9FFE4C0F3
:100E5000DAFFDFCFE5F0020EDE26DFCFE6F0000E90
:100E6000DD22E5C0D9FFE6C0DAFFDECF16F0DDCF28
:100E700017F082EF87F0E1C0D9FFE2C0DAFFDECFE2
:100E800067F0DDCF68F0B4ECACF067C016F068C076
:100E900017F052EF87F0E1C0D9FFE2C0DAFFDE2A97
:100EA000000EDD22D00E0001E56FFF0EE66FE1C0FF
:100EB000D9FFE2C0DAFFDECFF6FFDDCFF7FF000E8D
:100EC000F86E0800F550E76FE86BE551E727E6514B
:100ED000E823E8510AE10A0EE75DD8A072EF87F037
:100EE00075EF87F0010E76EF87F0000E0101A16F1C
:100EF000A26BA151A211D8A480EF87F082EF87F0F6
:100F00004BEF87F0E1C0D9FFE2C0DAFFDECFF6FF9A
:100F1000DDCFF7FF000EF86E0800F5500001666F98
:100F2000676BD8ECC2F0000166510101A96FA951AD
:100F3000D8B49DEF87F09FEF87F0E1EF87F0E1C035
:100F4000D9FFE2C0DAFFDECFE5F0DDCFE6F0010E3B
:100F50000001E527000EE623E5C0F6FFE6C0F7FF37
:100F6000000EF86E0800F550666F676BD8ECC2F0A3
:100F7000000166510101AA6FAA51D8B4C2EF87F0EF
:100F8000C4EF87F0E1EF87F0E1C0D9FFE2C0DAFFFC
:100F9000DECFE5F0DDCFE6F0020E0001E527000E22
:100FA000E623E5C0F6FFE6C0F7FF000EF86E080086
:100FB000F550666F676BD8ECC2F000016651010115
:100FC000AB6F660EA919D8A4E8EF87F0EAEF87F0B7
:100FD0002CEF88F0E1C0D9FFE2C0DAFFDECFF6FFE8
:100FE000DDCFF7FF000EF86E0800F5CFACF1E1C0E1
:100FF000D9FFE2C0DAFFDE2A000EDD22E3C0D9FF0E
:10100000E4C0DAFFDFCFE5F0040EDE26DFCFE6F046
:10101000000EDD22E5C0D9FFE6C0DAFFDECFA5F184
:10102000DECFA6F1DECFA7F1DECFA8F1DFC09BF0C7
:10103000E0C09CF0A5C19DF0A6C19EF0A7C19FF0A5
:10104000A8C1A0F0ACC1A1F000EC80F09BC0DFF023
:101050009CC0E0F095EF89F0A90E0001606F010ED1
:10106000616FF50E626FFF0E636F000E656F020E0B
:10107000646F1EECB9F0000160516111D8A443EF18
:1010800088F045EF88F0C5EF88F0E1C0D9FFE2C0F5
:10109000DAFFDECFE5F0DDCFE6F0010EE527000E4A
:1010A000E623E5C0F6FFE6C0F7FF000EF86E080085
:1010B000F5CFACF1BF0EE56FFF0EE66FE1C0D9FFD3
:1010C000E2C0DAFFDECFF6FFDDCFF7FF000EF86EED
:1010D0000800F550E76FE86BE551E727E651E82394
:1010E000E8510AE11A0EE75DD8A079EF88F07CEFAD
:1010F00088F0010E7DEF88F0000E0101A36FA46B54
:10110000A351A411D8B487EF88F089EF88F0A3EF3A
:1011100088F0E3C0D9FFE4C0DAFFDFCFE5F0040ECA
:10112000DE26DFCFE6F0000EDD22E5C0D9FFE6C007
:10113000DAFFDECFA5F1DECFA6F1DECFA7F1DECF5D
:10114000A8F1BBEF88F0E3C0D9FFE4C0DAFFDFCF3E
:10115000E5F0040EDE26DFCFE6F0000EDD22E5C06E
:10116000D9FFE6C0DAFFDECFA5F1DECFA6F1DECFF4
:10117000A7F1DECFA8F1020EE1C0D9FFE2C0DAFF8D
:10118000DE26000EDD2216EF88F0E1C0D9FFE2C0B6
:10119000DAFFDECFF6FFDDCFF7FF000EF86E0800B6
:1011A000F550780AD8B4D7EF88F0D9EF88F0EDEF92
:1011B00088F0E1C0D9FFE2C0DAFFDECFF6FFDDCF75
:1011C000F7FF000EF86E0800F550580AD8A4EBEFB0
:1011D00088F0EDEF88F03EEF89F0E1C0D9FFE2C082
:1011E000DAFFDECFF6FFDDCFF7FF000EF86E080066
:1011F000F5CFACF1E1C0D9FFE2C0DAFFDE2A000E84
:10120000DD22E3C0D9FFE4C0DAFFDFCFE5F0020E54
:10121000DE26DFCFE6F0000EDD22E5C0D9FFE6C016
:10122000DAFFDECFE7F0DDCFE8F0E7C095F1E8C008
:1012300096F10101976B986B996B9A6B9B6B9C6B0A
:10124000DFC07DF0E0C07EF095C17FF096C180F0F8
:1012500097C181F098C182F099C183F09AC184F05E
:101260009BC185F09CC186F0ACC187F0F3ECA4F083
:101270007DC0DFF07EC0E0F095EF89F0E1C0D9FFDE
:10128000E2C0DAFFDECFF6FFDDCFF7FF000EF86E2B
:101290000800F550250AD8A450EF89F052EF89F0E4
:1012A0006AEF89F0E1C0D9FFE2C0DAFFDE2A000E62
:1012B000DD22000E636F250E626FDFC064F0E0C0B8
:1012C00065F090ECB9F0000E0001E06F010EDF6FE9
:1012D00095EF89F0E1C0D9FFE2C0DAFFDE2A000E07
:1012E000DD22000EE06F000EDF6F95EF89F0E1C0A8
:1012F000D9FFE2C0DAFFDECFF6FFDDCFF7FF000E49
:10130000F86E0800F5500001626F636BDFC064F097
:10131000E0C065F090ECB9F0E1C0D9FFE2C0DAFFBF
:10132000DE2A000EDD2263EF89F012001EC171F08B
:101330001FC172F020C173F021C174F00001743537
:101340007433733372337133000E71258A6F060E56
:1013500072218B6FFF0E73218C6FFF0E74218D6FC6
:101360000B0E716F020E726F8AC073F08BC074F037
:101370008CC075F08DC076F07267C1EF89F0C9EF4F
:1013800089F076357633753374337333722FBCEF4F
:1013900089F073C060F074C061F075C062F076C00F
:1013A00063F0020E0001776F8AC078F08BC079F08D
:1013B0008CC07AF08DC07BF07767E1EF89F0E9EFC0
:1013C00089F07B357B337A3379337833772FDCEFD1
:1013D00089F078C064F079C065F07AC066F07BC0AF
:1013E00067F004ECC2F000017167F9EF89F001EFDA
:1013F0008AF063356333623361336033712FF3EF07
:1014000089F060C07EF061C07FF062C080F063C090
:1014100081F07EC060F07FC061F080C062F081C06A
:1014200063F066C164F067C165F00001000E65BF3E
:10143000FF0E666F676F04ECC2F060C082F061C09F
:1014400083F062C084F063C085F068C160F069C158
:1014500061F00001000E61BFFF0E626F636F8AC012
:1014600064F08BC065F08CC066F08DC067F004EC52
:10147000C2F0D89000016035716F6135726F6235CE
:10148000736F6335746F82517125826F835172213E
:10149000836F84517321846F85517421856F01019D
:1014A0006A510001716F01016B510001726F736B22
:1014B000746B72C074F071C073F0726B716B020E5A
:1014C000756F82C076F083C077F084C078F085C0F5
:1014D00079F075676EEF8AF076EF8AF079357933B7
:1014E000783377337633752F69EF8AF000017151C5
:1014F0007625826F72517721836F73517821846FC3
:1015000074517921856F0D0E716F020E726F8AC052
:1015100073F08BC074F08CC075F08DC076F072677C
:1015200094EF8AF09CEF8AF0763576337533743316
:101530007333722F8FEF8AF073C060F074C061F064
:1015400075C062F076C063F0020E0001776F8AC04A
:1015500078F08BC079F08CC07AF08DC07BF0776723
:10156000B4EF8AF0BCEF8AF07B357B337A33793382
:101570007833772FAFEF8AF078C064F079C065F0E8
:101580007AC066F07BC067F004ECC2F000017167BE
:10159000CCEF8AF0D4EF8AF0633563336233613382
:1015A0006033712FC6EF8AF060C07EF061C07FF0BB
:1015B00062C080F063C081F0120E0001716F030EF3
:1015C000726F6CC160F06DC161F0000E61BFFF0E03
:1015D000626F636F7EC064F07FC065F080C066F0AC
:1015E00081C067F004ECC2F060C073F061C074F0B9
:1015F00062C075F063C076F00001726702EF8BF095
:101600000AEF8BF076357633753374337333722F7C
:10161000FCEF8AF06EC160F06FC161F00001000E56
:1016200061BFFF0E626F636F8AC064F08BC065F0AC
:101630008CC066F08DC067F004ECC2F00001633529
:10164000633362336133603360517325776F615167
:101650007421786F62517521796F635176217A6FA9
:10166000716735EF8BF03DEF8BF07A357A33793354
:1016700078337733712F30EF8BF077C08AF078C0F2
:101680008BF079C08CF07AC08DF00F0E0001716F75
:10169000000E8A25606F800E8B21616F000E8C21F9
:1016A000626F000E8D21636F91C164F092C165F08D
:1016B000666B676B04ECC2F00001716762EF8BF040
:1016C0006AEF8BF063356333623361336033712FBC
:1016D0005CEF8BF060C08AF061C08BF062C08CF070
:1016E00063C08DF000018A518B118C118D11D8A42B
:1016F0007CEF8BF07EEF8BF088EF8BF0000E6D6F40
:10170000000E6E6F000E6F6F000E706F1BEF8DF08E
:101710000C0E716F82C072F083C073F084C074F0DD
:1017200085C075F0716797EF8BF09FEF8BF0753583
:101730007533743373337233712F92EF8BF06DC046
:1017400076F06EC077F06FC078F070C079F000016D
:10175000761F771F781F791F762B000E772378234B
:1017600079237251765D7A6F735177597B6F74511B
:1017700078597C6F755179597D6F000E7A25606FAD
:10178000000E7B21616F100E7C21626F000E7D21A7
:10179000636F350E646F0C0E656F000E666F000E82
:1017A000676F04ECC2F060C086F061C087F062C071
:1017B00088F063C089F0800E0001895DD8B0E3EF46
:1017C0008BF0E5EF8BF002EF8CF0D8908635606FF0
:1017D0008735616F8835626F8935636F8AC064F0C1
:1017E0008BC065F08CC066F08DC067F049ECBEF030
:1017F00060C086F061C087F062C088F063C089F085
:101800001EEF8CF086C060F087C061F088C062F087
:1018100089C063F08AC064F08BC065F08CC066F04C
:101820008DC067F049ECBEF0D89000016035866F3E
:101830006135876F6235886F6335896F86C071F057
:1018400087C072F088C073F089C074F0040E2FEF67
:101850008CF00001D8907433733372337133E82EF7
:1018600029EF8CF071C060F072C061F073C062F05B
:1018700074C063F086C075F087C076F088C077F0DA
:1018800089C078F0040E4AEF8CF0D8907833773323
:1018900076337533E82E45EF8CF075C064F076C072
:1018A00065F077C066F078C067F004ECC2F00E0E09
:1018B00060EF8CF00001D8906333623361336033A2
:1018C000E82E5AEF8CF060C07EF061C07FF062C0FD
:1018D00080F063C081F00C0E716F60C160F061C177
:1018E00061F0000E61BFFF0E626F636F7EC064F037
:1018F0007FC065F080C066F081C067F004ECC2F084
:101900000001716786EF8CF08EEF8CF063356333E6
:10191000623361336033712F80EF8CF060C08AF0E6
:1019200061C08BF062C08CF063C08DF00D0E0001C1
:10193000716F86C072F087C073F088C074F089C080
:1019400075F0030EA9EF8CF0D890753374337333B0
:101950007233E82EA4EF8CF072C060F073C061F0B7
:1019600074C062F075C063F062C164F063C165F079
:10197000000E65BFFF0E666F676F04ECC2F00001DA
:101980007167C5EF8CF0CDEF8CF063356333623354
:1019900061336033712FBFEF8CF060C082F061C0A3
:1019A00083F062C084F063C085F0040E0001716FA3
:1019B00064C172F065C173F0000E73BFFF0E746FE7
:1019C000756F8A517225766F8B517321776F8C51A9
:1019D0007421786F8D517521796F825176257A6FD8
:1019E000835177217B6F845178217C6F85517921D8
:1019F0007D6F7167FEEF8CF006EF8DF07D357D33E6
:101A00007C337B337A33712FF9EF8CF000018651F0
:101A10007A25866F87517B21876F88517C21886F5B
:101A200089517D21896F86C06DF087C06EF088C0B6
:101A30006FF089C070F0120000017C51800B856F3F
:101A40007C517C25876F7BAF28EF8DF02AEF8DF0DE
:101A50002BEF8DF087818751D8B431EF8DF033EFC4
:101A60008DF048EF8DF08729D8A439EF8DF03BEF4A
:101A70008DF043EF8DF0000E796F000E7A6F000E3F
:101A80007B6F000E7C6F7B8F000E7C6F50EF8DF0B4
:101A9000000E796F000E7A6F000E7B6F000E7C6F68
:101AA0008051800B866F85518619D8B45AEF8DF01E
:101AB0005CEF8DF05DEF8DF0858D80518025866F18
:101AC0007FAF65EF8DF067EF8DF068EF8DF0868169
:101AD0008651D8B46EEF8DF070EF8DF085EF8DF0FC
:101AE0008629D8A476EF8DF078EF8DF080EF8DF019
:101AF000000E7D6F000E7E6F000E7F6F000E806FF8
:101B00007F8F000E806F8DEF8DF0000E7D6F000EC9
:101B10007E6F000E7F6F000E806F8751865DD8B09C
:101B200094EF8DF096EF8DF0BDEF8DF085AD9BEFCE
:101B30008DF09DEF8DF09FEF8DF0800E851B87C09F
:101B400088F086C087F088C086F079C088F07DC0B4
:101B500079F088C07DF07AC088F07EC07AF088C0C5
:101B60007EF07BC088F07FC07BF088C07FF07CC0B7
:101B700088F080C07CF088C080F0000E886F8751AC
:101B800086C081F0826B815F000E825B82BFD2EFE4
:101B90008DF0825109E11A0E815DD8A0D2EF8DF04F
:101BA000D4EF8DF00BEF8EF079517A117B117C110F
:101BB000D8A4DDEF8DF0E0EF8DF0010EE1EF8DF0B8
:101BC000000E886F000E796F000E7A6F000E7B6F2B
:101BD000000E7C6F86C087F014EF8EF088A1F3EFC3
:101BE0008DF0F5EF8DF0FBEF8DF0D8908831010985
:101BF000886FFDEF8DF0D890883379A102EF8EF0D9
:101C000004EF8EF005EF8EF0888F7C357C337B33CC
:101C10007A337933872B8651875DD8A012EF8EF007
:101C200014EF8EF0EEEF8DF085BD19EF8EF01BEF07
:101C30008EF05BEF8EF08751D8A421EF8EF023EF6A
:101C40008EF02DEF8EF0000E796F000E7A6F000E81
:101C50007B6F000E7C6F7CEF8FF07D5179277E517A
:101C60007A237F517B2380517C237CA13AEF8EF035
:101C70003CEF8EF0E8EF8EF088A141EF8EF043EF5D
:101C80008EF049EF8EF0D89088310109886F4BEFC4
:101C90008EF0D890883379A150EF8EF052EF8EF00D
:101CA00053EF8EF0888F7C357C337B337A337933F6
:101CB000872BE8EF8EF07D51795D7E517A597F5107
:101CC0007B597C51800A816F8051800A8159D8B03C
:101CD0006CEF8EF06EEF8EF099EF8EF079517D5DA6
:101CE000816F7A517E59826F7B517F59836F7C510E
:101CF0008059846FFF0E8125796FFF0E82217A6FE4
:101D0000FF0E83217B6FFF0E84217C6F800E851B6D
:101D1000886D8851D8A48FEF8EF091EF8EF0A1EFEF
:101D20008EF0010E7927000E7A237B237C23A1EF0E
:101D30008EF07D51795F7E517A5B7F517B5B805164
:101D40007C5B79517A117B117C11D8A4AAEF8EF0BB
:101D5000ACEF8EF0E1EF8EF08851D8A4B2EF8EF0A8
:101D6000B4EF8EF0E1EF8EF0000E796F000E7A6F17
:101D7000000E7B6F000E7C6F7CEF8FF0D890793770
:101D80007A377B377C3788AFC8EF8EF0CAEF8EF09A
:101D9000CBEF8EF0798188A1D0EF8EF0D2EF8EF06C
:101DA000D6EF8EF0D8808837D8EF8EF0D89088376D
:101DB0008751D8B4DEEF8EF0E0EF8EF0E1EF8EF0D9
:101DC00087077BAFE6EF8EF0E8EF8EF0BEEF8EF088
:101DD000000E866F88AFEFEF8EF0F1EF8EF009EF17
:101DE0008FF088C081F07F0E8117D8B4FAEF8EF0A3
:101DF000FCEF8EF000EF8FF0010E866F09EF8FF091
:101E000079A105EF8FF007EF8FF009EF8FF0FCEF6E
:101E10008EF08651D8B40FEF8FF011EF8FF03CEFBA
:101E20008FF0010E7927000E7A237B237C237CA17F
:101E30001CEF8FF01EEF8FF03CEF8FF079C081F038
:101E40007AC082F07BC083F07CC084F08435843318
:101E500083338233813381C079F082C07AF083C0CA
:101E60007BF084C07CF08729D8B439EF8FF03BEF4A
:101E70008FF03CEF8FF0872B8729D8B442EF8FF09B
:101E800044EF8FF04CEF8FF08751D8A44AEF8FF0DA
:101E90004CEF8FF05EEF8FF0000E796F000E7A6FCF
:101EA000000E7B6F000E7C6F8751D8A45AEF8FF025
:101EB0005CEF8FF05EEF8FF0000E856F87A163EF10
:101EC0008FF065EF8FF068EF8FF07B8F69EF8FF009
:101ED0007B9FD89087317C6F85AF71EF8FF073EF68
:101EE0008FF074EF8FF07C8F79C079F07AC07AF040
:101EF0007BC07BF07CC07CF01200000E0001636FA1
:101F00002A0E626F000E656F000E646F9CECBEF0CF
:101F100062C0CBF163C0CCF10101CB51CC11D8A48C
:101F200094EF8FF096EF8FF09CEF8FF0000E20EC87
:101F3000C1F08A0E20ECC1F09C0E0101B76FD70EE4
:101F4000E82EFED7B72FFCD7000E0001636F2A0ED4
:101F5000626F000E656F000E646FEEECBEF062C043
:101F6000CBF163C0CCF10101CB51CC11D8A4BBEFB4
:101F70008FF0BDEF8FF0C3EF8FF0000E20ECC1F0BB
:101F80000A0E20ECC1F017ECC9F0080E0101B86F81
:101F90004F0EB76F190EE82EFED7B72FFCD7B82F0C
:101FA000FAD700D0000E0001636F2A0E626F000E98
:101FB000656F000E646F9CECBEF062C0CBF163C035
:101FC000CCF10101CB51CC11D8A4E9EF8FF0EBEFAC
:101FD0008FF0EEEF8FF0030E20ECC1F0000E000149
:101FE000636F2A0E626F000E656F010E646FEEEC78
:101FF000BEF0000E0101CE6F000ECD6F000E00018D
:10200000636F000E626F5AECC1F000016251010172
:102010001A6F000E0001636F000E626F5AECC1F080
:10202000000162510101166F16511AC1B7F1B86B68
:10203000B7C1B8F1B76BB711006FB851016FCD4B95
:10204000CE2B1A0ECD25D96E010ECE21DA6E000EE2
:102050000001636F000E626F5AECC1F00001625123
:10206000DF6E160E0101CD25D96E010ECE21DA6E7E
:10207000000E0001636F000E626F5AECC1F00001A8
:102080006251DF6E1A0E0101CD25D96E010ECE21EF
:10209000DA6EDF50B76FB751B96FB86B160ECD253A
:1020A000D96E010ECE21DA6EDF50BA6FBA51B81375
:1020B000000EB913D890CD35D96ECE35DA6E000E3C
:1020C000D926010EDA22B8C1DEFFB9C1DDFFCD4B42
:1020D000CE2B1A0ECD25D96E010ECE21DA6E000E52
:1020E0000001636F000E626F5AECC1F00001625193
:1020F000DF6E160E0101CD25D96E010ECE21DA6EEE
:10210000000E0001636F000E626F5AECC1F0000117
:102110006251DF6E1A0E0101CD25D96E010ECE215E
:10212000DA6EDF50B76FB751B96FB86B160ECD25A9
:10213000D96E010ECE21DA6EDF50BA6FBA51B813E4
:10214000000EB913D890CD35D96ECE35DA6E000EAB
:10215000D926010EDA22B8C1DEFFB9C1DDFFCD4BB1
:10216000CE2B1A0ECD25D96E010ECE21DA6E000EC1
:102170000001636F000E626F5AECC1F00001625102
:10218000DF6E160E0101CD25D96E010ECE21DA6E5D
:10219000000E0001636F010E626F5AECC1F0000186
:1021A0006251DF6E1A0E0101CD25D96E010ECE21CE
:1021B000DA6EDF50B76FB751B96FB86B160ECD2519
:1021C000D96E010ECE21DA6EDF50BA6FBA51B81354
:1021D000000EB913D890CD35D96ECE35DA6E000E1B
:1021E000D926010EDA22B8C1DEFFB9C1DDFF17EC36
:1021F000C9F00DECC5F0020E0101B86F380EB76FD3
:10220000AD0EE82EFED7B72FFCD7B82FFAD7000EA9
:102210000101CE6F000ECD6FBB0E0001F16F010EFC
:10222000F26FBF0EF36FFF0EF46F00C1F5F001C146
:10223000F6F09AECC3F0BB0E0001676F010E686FF9
:102240009AECBCF0020E0101B86F380EB76FAD0EFC
:10225000E82EFED7B72FFCD7B82FFAD70101CD4B08
:10226000CE2BBB0E0001F16F010EF26FAD0EF36FBE
:10227000FF0EF46FD8900101CD35D96ECE35DA6EF0
:10228000000ED926010EDA22DECFF5F0DDCFF6F012
:102290009AECC3F0BB0E0001676F010E686F9AECF9
:1022A000BCF0020E0101B86F380EB76FAD0EE82E0C
:1022B000FED7B72FFCD7B82FFAD70101CD4BCE2BC5
:1022C000000E00016B6F000E6A6F000E6D6F010E45
:1022D0006C6F41ECC7F0020E0101B86F380EB76F9A
:1022E000AD0EE82EFED7B72FFCD7B82FFAD7BB0E0E
:1022F0000001F16F010EF26FA40EF36FFF0EF46F89
:10230000D8900101CD35D96ECE35DA6E000ED926C2
:10231000010EDA22DECFF5F0DDCFF6F09AECC3F055
:10232000BB0E0001676F010E686F9AECBCF0020EE5
:102330000101B86F380EB76FAD0EE82EFED7B72F7C
:10234000FCD7B82FFAD70101CD4BCE2BBB0E000125
:10235000F16F010EF26FB60EF36FFF0EF46FD890AF
:102360000101CD35D96ECE35DA6E000ED926010EBB
:10237000DA22DECFF5F0DDCFF6F09AECC3F0BB0E3B
:102380000001676F010E686F9AECBCF0020E01014C
:10239000B86F380EB76FAD0EE82EFED7B72FFCD74B
:1023A000B82FFAD71200000E01011E250001996F07
:1023B000D40E01011F2100019A6FFE0E01012021A0
:1023C00000019B6FFF0E0101212100019C6F0B0E8C
:1023D000706F010181510001606F000E60BFFF0E40
:1023E000616F626F636F99C064F09AC065F09BC0C3
:1023F00066F09CC067F004ECC2F00001706703EF68
:1024000092F00BEF92F063356333623361336033E4
:10241000702FFDEF91F0000E00016025956F800E8A
:102420006121966F000E6221976F000E6321986FF5
:102430000A0E706F010180510001606F000E60BFD5
:10244000FF0E616F626F636F99C064F09AC065F0B0
:102450009BC066F09CC067F004ECC2F0000170679E
:1024600034EF92F03CEF92F06335633362336133C3
:102470006033702F2EEF92F060C085F061C086F05F
:1024800062C087F063C088F00A0E0001706F95C0CB
:1024900060F096C061F097C062F098C063F085C0AC
:1024A00064F086C065F087C066F088C067F004EC11
:1024B000C2F0000170675FEF92F067EF92F0633552
:1024C0006333623361336033702F59EF92F0000E43
:1024D00000016025896F000E61218A6F200E622144
:1024E0008B6F000E63218C6F0F0E706F5AC160F0FE
:1024F0005BC161F0000E61BFFF0E626F636F99C038
:1025000064F09AC065F09BC066F09CC067F004EC74
:10251000C2F001015C510001716F01015D510001C8
:10252000726F736B746B140ED89071377237733788
:102530007437E82E94EF92F06CC075F06DC076F0B1
:102540006EC077F06FC078F00E0ED8907537763782
:1025500077377837E82EA5EF92F07151755D796F76
:10256000725176597A6F735177597B6F74517859DC
:102570007C6F6051795D7D6F61517A597E6F6251D8
:102580007B597F6F63517C59806F000E7D25816F71
:10259000400E7E21826F000E7F21836F000E80210E
:1025A000846F7067D6EF92F0DEEF92F0843584335B
:1025B000833382338133702FD1EF92F081C08DF05D
:1025C00082C08EF083C08FF084C090F00E0E0001A8
:1025D000706F89C060F08AC061F08BC062F08CC0FF
:1025E00063F05EC164F05FC165F0000E65BFFF0E71
:1025F000666F676F04ECC2F0000E00016025716F1A
:10260000200E6121726F000E6221736F000E632134
:10261000746F70670EEF93F016EF93F074357433A8
:10262000733372337133702F09EF93F071C091F0EF
:1026300072C092F073C093F074C094F08DC060F0DB
:102640008EC061F08FC062F090C063F091C064F002
:1026500092C065F093C066F094C067F004ECC2F0DD
:1026600060C099F061C09AF062C09BF063C09CF0BA
:10267000070E0001706F0F0E716F99C072F09AC053
:1026800073F09BC074F09CC075F071674AEF93F0D3
:1026900052EF93F075357533743373337233712F92
:1026A00045EF93F072C060F073C061F074C062F0E7
:1026B00075C063F00F0E0001766F99C077F09AC075
:1026C00078F09BC079F09CC07AF076676AEF93F05F
:1026D00072EF93F07A357A33793378337733762F14
:1026E00065EF93F077C064F078C065F079C066F06C
:1026F0007AC067F004ECC2F00001706782EF93F0DB
:102700008AEF93F063356333623361336033702F44
:102710007CEF93F060C095F061C096F062C097F0D6
:1027200063C098F0040E0001706F95C060F096C011
:1027300061F097C062F098C063F00101825100011E
:10274000646F000E64BFFF0E656F666F676F04EC09
:10275000C2F000017067AFEF93F0B7EF93F063350D
:102760006333623361336033702FA9EF93F000015C
:102770006051995D996F61519A599A6F62519B5955
:102780009B6F63519C599C6F9CBFC9EF93F0CBEF3B
:1027900093F0CDEF93F0D5EF93F0000E996F000E0C
:1027A0009A6F000E9B6F000E9C6F9CBFE6EF93F03C
:1027B0009905000E9A59000E9B59190E9C59D8B0D4
:1027C000E4EF93F0E6EF93F0E8EF93F0F0EF93F09F
:1027D000000E996F000E9A6F000E9B6F190E9C6F82
:1027E0000C0E706F99C071F09AC072F09BC073F0BC
:1027F0009CC074F07067FFEF93F007EF94F07435AE
:102800007433733372337133702FFAEF93F071C0F6
:102810006CF072C06DF073C06EF074C06FF0120097
:102820005EECC8F08B808B82F28EF28C1F0E010161
:10283000F26F710EF16F1E0EE82EFED7F12FFCD74E
:10284000F22FFAD700F0280EC66E000E00016B6F53
:10285000000E6A6F000E6D6F280E6C6F000E6F6FAA
:10286000010E6E6F000E716F100E706F34ECB8F0C9
:10287000DC0E0001F16FFF0EF26F73ECC8F07A0E00
:102880000101F26FC10EF16F810EE82EFED7F12F1C
:10289000FCD7F22FFAD700D001ECC6F07A0E010176
:1028A000F26FC10EF16F810EE82EFED7F12FFCD72B
:1028B000F22FFAD700D03FEC9CF07A0E0101F26FB4
:1028C000C10EF16F810EE82EFED7F12FFCD7F22F4B
:1028D000FAD700D00DECC5F0D60E0001F16FFF0E57
:1028E000F26F73ECC8F0100E0101F66F1F0EF76F58
:1028F000040EF86F1F0EF96F140EFA6F1F0EFB6FA8
:10290000040EFC6F000EFD6F000E0001686F000EDC
:10291000676FF60E696F010E6A6F3FECBFF00F0E26
:102920000101F66F090EF76F0F0EF86F090EF96FC0
:102930000F0EFA6F090EFB6F110EFC6F000EFD6F8C
:10294000000E0001686F010E676FF60E696F010ED1
:102950006A6F3FECBFF01F0E0101F66F110EF76FAB
:10296000110EF86F1F0EF96F110EFA6F110EFB6F3B
:102970001F0EFC6F000EFD6F000E0001686F020E4F
:10298000676FF60E696F010E6A6F3FECBFF00DECDA
:10299000C5F0130E0101F26F440EF16F440EE82EE4
:1029A000FED7F12FFCD7F22FFAD700F0000E00016E
:1029B0006B6F000E6A6F000E6D6F000E6C6F41EC56
:1029C000C7F0E00E0001676FFF0E686F9AECBCF075
:1029D000000E4AECC4F0F80E0001676FFF0E686F3E
:1029E0009AECBCF0010E4AECC4F0FB0E0001676FDC
:1029F000FF0E686F9AECBCF0020E4AECC4F07A0E3F
:102A00000101F26FC10EF16F810EE82EFED7F12F9A
:102A1000FCD7F22FFAD700D0DB0E0001F16FFF0ECA
:102A2000F26F73ECC8F07DEC8FF081A01AEF95F097
:102A30001CEF95F025EF95F0DC0E0001606FFE0EA7
:102A4000616F060E626F4BECA3F045EC9AF0030E3B
:102A50000101015DD8A02FEF95F031EF95F035EF32
:102A600095F08B808B9244EF95F0030E055DD8A016
:102A70003CEF95F03EEF95F042EF95F08B908B8216
:102A800044EF95F08B908B920DECC5F03D0E01015B
:102A9000F26FE10EF16F3F0EE82EFED7F12FFCD75B
:102AA000F22FFAD700D080B058EF95F05AEF95F09A
:102AB000DEEF95F0200E2C6060EF95F062EF95F060
:102AC00064EF95F032EF96F065A269EF95F06BEF49
:102AD00095F06DEF95F032EF96F02B50D8A473EF90
:102AE00095F075EF95F0DCEF95F0000E00016B6F3F
:102AF000030E6C6F400E6D6F87ECBBF00101F56F3C
:102B0000000EFE6FC2EF95F0000EFE25D96EDA6A58
:102B1000030EDA22000EFE25E16EE26A040EE222C6
:102B2000DFCFE7FFC1EF95F0000EFE25D96EDA6A20
:102B3000040EDA22000EFE25E16EE26A030EE222A6
:102B4000E750F16FF129DF6EC1EF95F0000EFE2521
:102B5000D96EDA6A030EDA22DF50F16FF26BF251AE
:102B6000000AD8B4B6EF95F094EF95F0F1510A0A47
:102B7000D8B484EF95F0070AD8B484EF95F094EFB9
:102B800095F0FE2BF551FE5DD8A0C9EF95F0CBEF87
:102B900095F0A6EF95F0F551D8B4D1EF95F0D3EFBD
:102BA00095F0DCEF95F0000E0001606F040E616F90
:102BB000F5C162F048ECC8F0DEECABF04AEC98F0FE
:102BC000EDECC8F00009D8B4E8EF95F0EAEF95F025
:102BD0002EEF96F0F4ECC3F00101F46FF451C7EC62
:102BE000C3F010EF96F08B84540E0001F16FFF0ECE
:102BF000F26F73ECC8F02EEF96F08B94420E00014A
:102C0000F16FFF0EF26F73ECC8F02EEF96F0060E28
:102C10000001F16FFF0EF26F73ECC8F02EEF96F02B
:102C20000101F451F16FF26BF251000AD8B41BEFBD
:102C300096F007EF96F0F151480AD8B4F3EF95F00B
:102C4000040AD8B4FDEF95F0240AD8B4F3EF95F058
:102C5000040AD8B4FDEF95F007EF96F0DDEC9FF095
:102C600015EF95F0F0EF00F000016351800B6C6FF1
:102C700063516325726F62AF40EF96F042EF96F0BA
:102C800043EF96F072817251D8B449EF96F04BEF52
:102C900096F05EEF96F07229D8A451EF96F053EFBC
:102CA00096F05BEF96F0000E606F000E616F000E05
:102CB000626F000E636F628F66EF96F0000E606FBA
:102CC000000E616F000E626F000E636F6751800B24
:102CD0006C1B67516725716F66AF71EF96F073EFEC
:102CE00096F074EF96F071817151D8B47AEF96F046
:102CF0007CEF96F08FEF96F07129D8A482EF96F0D2
:102D000084EF96F08CEF96F0000E646F000E656F06
:102D1000000E666F000E676F668F97EF96F0000EDD
:102D2000646F000E656F000E666F000E676F715165
:102D3000D8B49DEF96F09FEF96F0A7EF96F0725102
:102D4000D8A4A5EF96F0A7EF96F0B1EF96F0000E9D
:102D5000606F000E616F000E626F000E636F49EFCF
:102D600098F066516003F3CF77F0F4CF78F07751A5
:102D70006D6F6E6B6F6B706B7851736F746B756B7F
:102D8000766B65516103F3CF77F0F4CF78F077512C
:102D90006D27000E6E236F23702378517327000E6A
:102DA00074237523762364516203F3CF77F0F4CF55
:102DB00078F077516D27000E6E236F2370237851C2
:102DC0007327000E7423752376236FC070F06EC0D6
:102DD0006FF06DC06EF06D6B64516103F3CF77F0EF
:102DE000F4CF78F077516D2778516E23000E6F2362
:102DF000000E702365516003F3CF77F0F4CF78F0C5
:102E000077516D2778516E23000E6F23000E7023CB
:102E10006FC070F06EC06FF06DC06EF06D6B64517E
:102E20006003F3CF77F0F4CF78F077516D277851C6
:102E30006E23000E6F23000E702366516103F3CFE3
:102E400077F0F4CF78F07751732778517423000E20
:102E50007523000E762365516203F3CF77F0F4CF2C
:102E600078F07751732778517423000E7523000E84
:102E7000762366516203F3CF77F0F4CF78F0775181
:102E8000686F7851696F6A6B6B6B6AC06BF069C071
:102E90006AF068C069F0686B6851732769517423E0
:102EA0006A5175236B5176236DC068F06EC069F06E
:102EB0006FC06AF070C06BF0190E64EF97F0D89095
:102EC0006B336A3369336833E82E5FEF97F06851EC
:102ED0007327695174236A5175236B5176236FC030
:102EE00070F06EC06FF06DC06EF06D6B715172C09E
:102EF00068F0696B6827000E6923820E6825776F7A
:102F0000FF0E6921786F9AEF97F0D8907337743776
:102F10007537763770AF8FEF97F091EF97F092EFAC
:102F200097F07381D8906D376E376F3770377707AA
:102F3000D8A0780775AF9FEF97F0A1EF97F085EFD6
:102F400097F0000E716F70AFA8EF97F0AAEF97F0AF
:102F5000CEEF97F0FF0E6D15686FFF0E6E15696F5F
:102F6000FF0E6F156A6F7F0E70156B6F68516911D8
:102F70006A116B11D8B4BFEF97F0C1EF97F0C5EFAE
:102F800097F0010E716FCEEF97F073A1CAEF97F033
:102F9000CCEF97F0CEEF97F0C1EF97F07151D8B426
:102FA000D4EF97F0D6EF97F0FAEF97F0010E732772
:102FB000000E74237523762376A1E1EF97F0E3EFFB
:102FC00097F0FAEF97F073C068F074C069F075C0BD
:102FD0006AF076C06BF06B356B336A3369336833F4
:102FE00068C073F069C074F06AC075F06BC076F0A9
:102FF000774B782B78BF05EF98F0785108E1772967
:10300000D8A005EF98F007EF98F011EF98F0000EB8
:10301000736F000E746F800E756F7F0E766F3FEFCB
:1030200098F078BF1EEF98F0785106E17705D8B098
:103030001CEF98F01EEF98F02AEF98F0000E736FD7
:10304000000E746F000E756F000E766F000E6C6FC1
:103050003FEF98F077C072F0FF0E7317FF0E7417F2
:103060007F0E7517000E761772A139EF98F03BEFBF
:1030700098F03CEF98F0758FD8907231766F6C5164
:10308000761373C060F074C061F075C062F076C0F2
:1030900063F01200000E0101E16F000EE26F000EFE
:1030A000E36F000EE46F000EE96F000EEA6F000E92
:1030B000EB6F000EEC6F000EE56F000EE66F000E7A
:1030C000E76F000EE86FAEECA7F02AC16CF02BC1E1
:1030D0006DF02CC16EF02DC16FF062ECA6F06CC0EB
:1030E000C9F16DC0CAF16EC0CBF16FC0CCF122C185
:1030F0006DF023C16EF024C16FF025C170F096EC25
:1031000089F06DC0CDF16EC0CEF16FC0CFF170C04F
:10311000D0F126C16CF027C16DF028C16EF029C135
:103120006FF0D3EC91F06CC0D1F16DC0D2F16EC0F4
:10313000D3F16FC0D4F1C9C160F0CAC161F0CBC195
:1031400062F0CCC163F0010E02ECABF060C06EF037
:1031500061C06FF062C070F063C071F0000E0001DA
:10316000726F000E736FC80E746F420E756F0FECA6
:103170009EF06EC0EDF16FC0EEF170C0EFF171C066
:10318000F0F1CDC160F0CEC161F0CFC162F0D0C12D
:1031900063F0000E02ECABF060C06EF061C06FF047
:1031A00062C070F063C071F0000E0001726F000E1B
:1031B000736FC80E746F420E756F0FEC9EF06EC089
:1031C000E1F16FC0E2F170C0E3F171C0E4F1D1C18F
:1031D00060F0D2C161F0D3C162F0D4C163F0000EDF
:1031E00002ECABF060C06EF061C06FF062C070F0D6
:1031F00063C071F0000E0001726F000E736F800EDD
:10320000746F440E756F0FEC9EF06EC0E9F16FC0E5
:10321000EAF170C0EBF171C0ECF10A0E0001646FCD
:10322000D70E656F230E666F3C0E676FE9C160F0C5
:10323000EAC161F0EBC162F0ECC163F034EC96F0EE
:1032400060C0D5F161C0D6F162C0D7F163C0D8F1DA
:10325000CD0E00017D6FCC0E7E6F640E7F6FC10EB0
:10326000806FA40E646F700E656F7D0E666F3F0EEB
:10327000676FEDC160F0EEC161F0EFC162F0F0C1C7
:1032800063F034EC96F060C079F061C07AF062C00F
:103290007BF063C07CF01CEC8DF079C0D9F17AC072
:1032A000DAF17BC0DBF17CC0DCF1D5C164F0D6C1C2
:1032B00065F0D7C166F0D8C167F0D9C160F0DAC156
:1032C00061F0DBC162F0DCC163F034EC96F060C009
:1032D0007DF061C07EF062C07FF063C080F0290E97
:1032E0000001646F5C0E656F4F0E666F3F0E676F77
:1032F000EDC160F0EEC161F0EFC162F0F0C163F0CA
:1033000034EC96F060C079F061C07AF062C07BF076
:1033100063C07CF01CEC8DF079C0DDF17AC0DEF189
:103320007BC0DFF17CC0E0F1DDC179F0DEC17AF075
:10333000DFC17BF0E0C17CF0330E00017D6F330E06
:103340007E6F390E7F6F420E806F1CEC8DF079C05E
:10335000E5F17AC0E6F17BC0E7F17CC0E8F1B90E97
:103360000001F16F010EF26F650EF36FFF0EF46F47
:10337000EDC1F5F0EEC1F6F0EFC1F7F0F0C1F8F0F5
:10338000E9C1F9F0EAC1FAF0EBC1FBF0ECC1FCF0E5
:103390009AECC3F01C0E0001F16FFF0EF26FEDC14D
:1033A000F3F0EEC1F4F0EFC1F5F0F0C1F6F0E9C1D1
:1033B000F7F0EAC1F8F0EBC1F9F0ECC1FAF073EC08
:1033C000C8F0000E00016B6F000E6A6F000E6D6F8B
:1033D000000E6C6F41ECC7F0B90E0001676F010E73
:1033E000686F9AECBCF0B90E0001F16F010EF26F3C
:1033F000750EF36FFF0EF46FE1C1F5F0E2C1F6F068
:10340000E3C1F7F0E4C1F8F0E5C1F9F0E6C1FAF084
:10341000E7C1FBF0E8C1FCF09AECC3F0300E00010C
:10342000F16FFF0EF26FE1C1F3F0E2C1F4F0E3C11E
:10343000F5F0E4C1F6F0E5C1F7F0E6C1F8F0E7C158
:10344000F9F0E8C1FAF073ECC8F0000E00016B6F00
:10345000000E6A6F000E6D6F010E6C6F41ECC7F0CD
:10346000B90E0001676F010E686F9AECBCF03D0E5B
:103470000101B86FE10EB76F3F0EE82EFED7B72FF0
:10348000FCD7B82FFAD700D01200070E0101B86F91
:10349000170EB76F6A0EE82EFED7B72FFCD7B82FDE
:1034A000FAD700F0000E0001636F2A0E626F000E63
:1034B000656F000E646F9CECBEF062C0CBF163C020
:1034C000CCF10101CB51CC11D8A469EF9AF06BEF8C
:1034D0009AF06EEF9AF0030E20ECC1F0000E00019E
:1034E000636F2A0E626F000E656F010E646FEEEC63
:1034F000BEF0000E0101CE6F000ECD6F000E000178
:10350000636F000E626F5AECC1F00001625101015D
:103510001A6F000E0001636F000E626F5AECC1F06B
:10352000000162510101166F16511AC1B7F1B86B53
:10353000B7C1B8F1B76BB711006FB851016FCD4B80
:10354000CE2B1A0ECD25D96E010ECE21DA6E000ECD
:103550000001636F000E626F5AECC1F0000162510E
:10356000DF6E160E0101CD25D96E010ECE21DA6E69
:10357000000E0001636F000E626F5AECC1F0000193
:103580006251DF6E1A0E0101CD25D96E010ECE21DA
:10359000DA6EDF50B76FB751B96FB86B160ECD2525
:1035A000D96E010ECE21DA6EDF50BA6FBA51B81360
:1035B000000EB913D890CD35D96ECE35DA6E000E27
:1035C000D926010EDA22B8C1DEFFB9C1DDFFCD4B2D
:1035D000CE2B1A0ECD25D96E010ECE21DA6E000E3D
:1035E0000001636F000E626F5AECC1F0000162517E
:1035F000DF6E160E0101CD25D96E010ECE21DA6ED9
:10360000000E0001636F000E626F5AECC1F0000102
:103610006251DF6E1A0E0101CD25D96E010ECE2149
:10362000DA6EDF50B76FB751B96FB86B160ECD2594
:10363000D96E010ECE21DA6EDF50BA6FBA51B813CF
:10364000000EB913D890CD35D96ECE35DA6E000E96
:10365000D926010EDA22B8C1DEFFB9C1DDFFCD4B9C
:10366000CE2B1A0ECD25D96E010ECE21DA6E000EAC
:103670000001636F000E626F5AECC1F000016251ED
:10368000DF6E160E0101CD25D96E010ECE21DA6E48
:10369000000E0001636F010E626F5AECC1F0000171
:1036A0006251DF6E1A0E0101CD25D96E010ECE21B9
:1036B000DA6EDF50B76FB751B96FB86B160ECD2504
:1036C000D96E010ECE21DA6EDF50BA6FBA51B8133F
:1036D000000EB913D890CD35D96ECE35DA6E000E06
:1036E000D926010EDA22B8C1DEFFB9C1DDFF17EC21
:1036F000C9F00DECC5F0020E0101B86F380EB76FBE
:10370000AD0EE82EFED7B72FFCD7B82FFAD7000E94
:103710000101CE6F000ECD6FBB0E0001F16F010EE7
:10372000F26FBF0EF36FFF0EF46F00C1F5F001C131
:10373000F6F09AECC3F0BB0E0001676F010E686FE4
:103740009AECBCF09C0E0101B76FD70EE82EFED7A5
:10375000B72FFCD70101CD4BCE2BBB0E0001F16F73
:10376000010EF26FAD0EF36FFF0EF46FD8900101F2
:10377000CD35D96ECE35DA6E000ED926010EDA229D
:10378000DECFF5F0DDCFF6F09AECC3F0BB0E000112
:10379000676F010E686F9AECBCF09C0E0101B76F69
:1037A000D70EE82EFED7B72FFCD70101CD4BCE2B7D
:1037B000000E00016B6F000E6A6F000E6D6F010E40
:1037C0006C6F41ECC7F09C0E0101B76FD70EE82E6D
:1037D000FED7B72FFCD7BB0E0001F16F010EF26FC1
:1037E000A40EF36FFF0EF46FD8900101CD35D96EA2
:1037F000CE35DA6E000ED926010EDA22DECFF5F0D4
:10380000DDCFF6F09AECC3F0BB0E0001676F010E3E
:10381000686F9AECBCF09C0E0101B76FD70EE82ED2
:10382000FED7B72FFCD70101CD4BCE2BBB0E00012D
:10383000F16F010EF26FB60EF36FFF0EF46FD890BA
:103840000101CD35D96ECE35DA6E000ED926010EC6
:10385000DA22DECFF5F0DDCFF6F09AECC3F0BB0E46
:103860000001676F010E686F9AECBCF09C0E0101BD
:10387000B76FD70EE82EFED7B72FFCD71200000E79
:103880000001636F760E626F000E656F000E646F4D
:103890009CECBEF062C08DF063C08EF000018D51D3
:1038A0008E11D8A456EF9CF058EF9CF05BEF9CF083
:1038B000880E20ECC1F0000E0001636F760E626F7F
:1038C000000E656F010E646FEEECBEF0000E00019D
:1038D0008B6F6B0E8B25D96EDA6A000EDA22000E22
:1038E000636F000E626F5AECC1F000016251DF6E2F
:1038F0008B2B8B51800A690FD8A081EF9CF083EF4E
:103900009CF069EF9CF0000E636F010E626F5AEC41
:10391000C1F000016251826F17ECC9F0000E000186
:10392000636F760E626F000E656F000E646F9CEC25
:10393000BEF062C08DF063C08EF000018D518E111B
:10394000D8A4A5EF9CF0A7EF9CF0AAEF9CF0A10EE5
:1039500020ECC1F0000E0001636F760E626F000E66
:10396000656F010E646FEEECBEF0000E0001636F38
:10397000010E626F5AECC1F000016251836F17ECC7
:10398000C9F0000E0001636F760E626F000E656F66
:10399000000E646F9CECBEF062C08DF063C08EF0D0
:1039A00000018D518E11D8A4D8EF9CF0DAEF9CF075
:1039B000DDEF9CF0E10E20ECC1F0000E0001636F22
:1039C000760E626F000E656F010E646FEEECBEF056
:1039D000190E00018C6F6B0E8C25D96EDA6A000E01
:1039E000DA22000E636F000E626F5AECC1F0000124
:1039F0006251DF6E8C2B8C51800A610FD8A003EFCF
:103A00009DF005EF9DF0EBEF9CF0000E636F010E53
:103A1000626F5AECC1F0000162518A6F17ECC9F075
:103A200000016B516CC067F0686B67C068F0676B32
:103A300067110101746F000168510101756F000188
:103A40006D516EC067F0686B67C068F0676B671197
:103A50000101726F000168510101736F00016F5124
:103A600070C067F0686B67C068F0676B6711010131
:103A7000706F000168510101716F0001715172C0D6
:103A800067F0686B67C068F0676B67110101916F41
:103A9000000168510101926F0001735174C067F019
:103AA000686B67C068F0676B671101016E6F00019A
:103AB000685101016F6F0001755176C067F0686B46
:103AC00067C068F0676B671101016C6F0001685196
:103AD00001016D6F0001775178C067F0686B67C0B6
:103AE00068F0676B671101016A6F0001685101019D
:103AF0006B6F000179517AC067F0686B67C068F03E
:103B0000676B67110101686F000168510101696FFE
:103B100000017B517CC067F0686B67C068F0676B21
:103B200067110101666F000168510101676F0001B3
:103B30007D517EC067F0686B67C068F0676B671186
:103B40000101646F000168510101656F00017F513F
:103B500080C067F0686B67C068F0676B6711010130
:103B6000626F000168510101636F0001815182C0E1
:103B700067F0686B67C068F0676B67110101606F81
:103B8000000168510101616F83C082F1000184511D
:103B900085C067F0686B67C068F0676B67110101EB
:103BA0005E6F0001685101015F6F86C081F1000105
:103BB0008751676F686B673B683BF00E681767510A
:103BC0000F0B6813F00E671788C069F00F0E6917A6
:103BD0006951671101015C6F0001685101015D6F5E
:103BE00000018951676F686B673B683BF00E68178F
:103BF00067510F0B6813F00E671788C069F0693BB7
:103C00000F0E69170F0E69176951671101015A6F7D
:103C10000001685101015B6F8AC080F11200000150
:103C20007151800B7E6F71517125856F70AF1BEFE5
:103C30009EF01DEF9EF01EEF9EF085818551D8B459
:103C400024EF9EF026EF9EF03BEF9EF08529D8A44E
:103C50002CEF9EF02EEF9EF036EF9EF0000E6E6F72
:103C6000000E6F6F000E706F000E716F708F000E80
:103C7000716F43EF9EF0000E6E6F000E6F6F000EBF
:103C8000706F000E716F7551800B7E1B755175251D
:103C9000866F74AF4EEF9EF050EF9EF051EF9EF0A6
:103CA00086818651D8B457EF9EF059EF9EF06EEFA3
:103CB0009EF08629D8A45FEF9EF061EF9EF069EF39
:103CC0009EF0000E726F000E736F000E746F000E88
:103CD000756F748F000E756F76EF9EF0000E726F29
:103CE000000E736F000E746F000E756F72517311BA
:103CF00074117511D8A47FEF9EF081EF9EF099EFBB
:103D00009EF0000E6E6F000E6F6F000E706F000E53
:103D1000716F800E70137F0E71137E5171136EC020
:103D20006EF06FC06FF070C070F071C071F0DCEFBA
:103D30009FF08551D8A49FEF9EF0A1EF9EF0ABEFCE
:103D40009EF0000E6E6F000E6F6F000E706F000E13
:103D5000716FDCEF9FF0865185C076F0776B765FF0
:103D6000000E775B7F0E76257F6F000E7721806FC8
:103D70006EC07AF06FC07BF070C07CF071C07DF0D7
:103D8000000E6E6F000E6F6F000E706F000E716F81
:103D9000000E816F000E826F000E836F000E846F25
:103DA000000E866F0CEF9FF08651D8B4DAEF9EF0CC
:103DB000DCEF9EF0F3EF9EF0D8907A377B377C37BC
:103DC0007D37D8906E376F377037713784AFEBEF30
:103DD0009EF0EDEF9EF0EEEF9EF06E81D890813771
:103DE00082378337843772517A5D73517B597451AE
:103DF0007C5975517D59D8A000EF9FF002EF9FF0DC
:103E00000BEF9FF0848D72517A5F73517B5B74511D
:103E10007C5B75517D5B862B190E866512EF9FF0DA
:103E200014EF9FF0D4EF9EF07A517B117C117D113D
:103E3000D8B41DEF9FF01FEF9FF037EF9FF0818107
:103E400037EF9FF0D8906E376F377037713784AF88
:103E50002CEF9FF02EEF9FF02FEF9FF06E81D89008
:103E600081378237833784377F07D8A0800770AFC8
:103E70003CEF9FF03EEF9FF022EF9FF0000E866F29
:103E800084AF45EF9FF047EF9FF06BEF9FF0FF0E81
:103E90008115766FFF0E8215776FFF0E8315786F91
:103EA0007F0E8415796F7651771178117911D8B416
:103EB0005CEF9FF05EEF9FF062EF9FF0010E866F68
:103EC0006BEF9FF06EA167EF9FF069EF9FF06BEFD4
:103ED0009FF05EEF9FF08651D8B471EF9FF073EFC3
:103EE0009FF097EF9FF0010E6E27000E6F23702357
:103EF000712371A17EEF9FF080EF9FF097EF9FF00D
:103F00006EC076F06FC077F070C078F071C079F055
:103F10007935793378337733763376C06EF077C07E
:103F20006FF078C070F079C071F07F4B802B80BF4C
:103F3000A2EF9FF0805108E17F29D8A0A2EF9FF067
:103F4000A4EF9FF0AFEF9FF0000E806F7F69000E2F
:103F50006E6F000E6F6F000E706F000E716F80BF7E
:103F6000BCEF9FF0805106E17F05D8B0BAEF9FF01B
:103F7000BCEF9FF0CAEF9FF0000E806F000E7F6FC6
:103F8000000E6E6F000E6F6F000E706F000E716F7F
:103F9000000E7E6F7FC085F085A1D1EF9FF0D3EF3B
:103FA0009FF0D6EF9FF0708FD7EF9FF0709FD89063
:103FB0008531716F8DEF9EF01200ADECC9F080B2CB
:103FC000E4EF9FF0E6EF9FF0DFEF9FF0910E00012E
:103FD000F16FFF0EF26F73ECC8F0898480B2F3EFDB
:103FE0009FF0F5EF9FF0EEEF9FF08994000ECE6EFC
:103FF000000ECF6EAFECC9F080A201EFA0F003EF8E
:10400000A0F0FCEF9FF0ADECC9F05C0ECF640BEFBD
:10401000A0F00DEFA0F08CEFA0F0760ECF6013EFC4
:10402000A0F015EFA0F08CEFA0F0D00E0001F16F22
:10403000FF0EF26F73ECC8F080B221EFA0F023EF17
:10404000A0F01CEFA0F0000E0101BF6F000EBE6FCC
:10405000B40EBE25D96E010EBF21DA6E000EDF6EE2
:10406000000EBB6F070EBA6F80A239EFA0F03BEFD6
:10407000A0F034EFA0F0000ECE6E000ECF6EAFECCD
:10408000C9F080B246EFA0F048EFA0F041EFA0F0F9
:104090000A0ECF644EEFA0F050EFA0F06FEFA0F04B
:1040A000B40E0101BE25D96E010EBF21DA6EB40E29
:1040B000BE25E16E010EBF21E26EE750B16FBAC1BD
:1040C000B2F1010EB36FB22B68EFA0F0D890B33706
:1040D000B22F66EFA0F00101B351B111DF6E010103
:1040E000BA07D8A0BB07BBBF7AEFA0F078EFA0F06B
:1040F00034EFA0F0BE4BBF2BBFBF88EFA0F0BF5185
:1041000009E1040EBE5DD8A088EFA0F08AEFA0F010
:1041100028EFA0F046EFA1F01C0ECF6492EFA0F0C4
:1041200094EFA0F013EFA1F02E0ECF609AEFA0F065
:104130009CEFA0F013EFA1F0C80E0001F16FFF0E8D
:10414000F26F73ECC8F080B2A8EFA0F0AAEFA0F075
:10415000A3EFA0F0000E0101C16F000EC06FB40EFE
:10416000C025D96E010EC121DA6E000EDF6E000E81
:10417000BD6F070EBC6F80A2C0EFA0F0C2EFA0F031
:10418000BBEFA0F0000ECE6E000ECF6EAFECC9F00C
:1041900080B2CDEFA0F0CFEFA0F0C8EFA0F0080EF6
:1041A000CF64D5EFA0F0D7EFA0F0F6EFA0F0B40EFB
:1041B0000101C025D96E010EC121DA6EB40EC025F1
:1041C000E16E010EC121E26EE750B16FBCC1B2F1E8
:1041D000010EB36FB22BEFEFA0F0D890B337B22F30
:1041E000EDEFA0F00101B351B111DF6E0101BC0789
:1041F000D8A0BD07BDBF01EFA1F0FFEFA0F0BBEF5E
:10420000A0F0C04BC12BC1BF0FEFA1F0C15109E11C
:10421000060EC05DD8A00FEFA1F011EFA1F0AFEF37
:10422000A0F046EFA1F09B0E0001F16FFF0EF26FC0
:1042300073ECC8F0850E0001F16FFF0EF26FCFCF67
:10424000F3F0F46BCECFF5F0F66B73ECC8F0898425
:104250001F0E0101B26F710EB16F1E0EE82EFED758
:10426000B12FFCD7B22FFAD700F089941F0E0101AD
:10427000B26F710EB16F1E0EE82EFED7B12FFCD7B4
:10428000B22FFAD700F08984DFEF9FF080A24BEFC6
:10429000A1F04DEFA1F046EFA1F0000ECE6E000EA2
:1042A000CF6ECD8077EFA1F0120ECF645AEFA1F060
:1042B0005CEFA1F077EFA1F0E60E0001F16FFE0ECA
:1042C000F26FB4C1F3F0F46BB5C1F5F0F66BB6C1A3
:1042D000F7F0F86BB7C1F9F0FA6BB8C1FBF0FC6B03
:1042E000B9C1FDF0FE6B73ECC8F09DEFA1F080B298
:1042F0007CEFA1F07EEFA1F054EFA1F089841F0EB6
:104300000101B26F710EB16F1E0EE82EFED7B12FF4
:10431000FCD7B22FFAD700F089941F0E0101B26FBB
:10432000710EB16F1E0EE82EFED7B12FFCD7B22F43
:10433000FAD700F08984DFEF9FF012000D013205FB
:10434000D8A4A5EFA1F0A7EFA1F0C3EFA1F03051E1
:104350001F0B0009D8A4AFEFA1F0B1EFA1F0C3EF9C
:10436000A1F00D8E030E3119D8A4B9EFA1F0BBEF67
:10437000A1F0C0EFA1F0010E0101906FC3EFA1F019
:10438000000E0101906F0D013251D8A4CAEFA1F0C7
:10439000CCEFA1F04AEFA3F030511F0B020AD8A4D2
:1043A000D4EFA1F0D6EFA1F04AEFA3F034510F0BF8
:1043B0000009D8B4DEEFA1F0E0EFA1F04AEFA3F0DE
:1043C00034510F0B436E030E4360E9EFA1F0EBEFA6
:1043D000A1F04AEFA3F0200E2C18D8A4F2EFA1F020
:1043E000F4EFA1F04AEFA3F00D8E34BFFAEFA1F085
:1043F000FCEFA1F019EFA2F034510F0B436E4350C4
:10440000020D080EF324D96E010EF420DA6EDECF11
:1044100048F0DDCF49F034510F0B436E446A470E2C
:104420004324D96E010E4420DA6EDF50476E34EF1C
:10443000A2F034510F0B436E4350020D100EF324C3
:10444000D96E000EF420DA6EDECF48F0DDCF49F0F1
:1044500034510F0B436E446A4A0E4324D96E010E49
:104460004420DA6EDF50476E47B039EFA2F03BEFE1
:10447000A2F043EFA2F0FB0E4814486EFF0E491461
:10448000496E48EFA2F0040E4810486E4950496E3C
:1044900034BF4DEFA2F04FEFA2F060EFA2F0345125
:1044A0000F0B436E4350020D080EF324D96E010E1C
:1044B000F420DA6E48C0DEFF49C0DDFF6FEFA2F0E6
:1044C00034510F0B436E4350020D100EF324D96E7E
:1044D000000EF420DA6E48C0DEFF49C0DDFF030E97
:1044E0003119D8A476EFA2F078EFA2F0B2EFA2F0E3
:1044F00048C0D9FF49C0DAFFDFAE81EFA2F083EFF9
:10450000A2F0A4EFA2F034BF88EFA2F08AEFA2F0ED
:1045100098EFA2F034510F0B436E446A470E4324C8
:10452000D96E010E4420DA6E0101DF82A4EFA2F001
:1045300034510F0B436E446A4A0E4324D96E010E68
:104540004420DA6E0101DF8248C0D9FF49C0DAFF9A
:10455000000EDB8448C0D9FF49C0DAFF000EDB8EB5
:104560004AEFA3F0040E4818486E4950496E48C0FF
:10457000D9FF49C0DAFFDFAEC0EFA2F0C2EFA2F070
:10458000DEEFA2F048C0D9FF49C0DAFF7F0EDF1688
:1045900048C0D9FF49C0DAFF000EDB8C000E3C6E2C
:1045A000050E3B6E48C03DF049C03EF0000E406E27
:1045B000020E3F6E20ECC0F0E4EFA2F048C0D9FF3D
:1045C00049C0DAFF000EDB8C040E4818486E4950D3
:1045D000496E47B2EEEFA2F0F0EFA2F0FBEFA2F0CF
:1045E00048C0D9FF49C0DAFFDFAEF9EFA2F0FBEF18
:1045F000A2F033EFA3F00D0134BF01EFA3F003EFFE
:10460000A3F011EFA3F034510F0B436E446A470E31
:104610004324D96E010E4420DA6E0101DF921DEFB2
:10462000A3F034510F0B436E446A4A0E4324D96EF3
:10463000010E4420DA6E0101DF9248C0D9FF49C063
:10464000DAFF3B0EDF16000E3C6E050E3B6E48C0D7
:104650003DF049C03EF0000E406E020E3F6E20EC71
:10466000C0F039EFA3F048C0D9FF49C0DAFF3B0ED4
:10467000DF160D0134510F0B436E446A260E43249E
:10468000456E0F0E4420466E45C0D9FF46C0DAFF86
:10469000FE0EDF161200040E00016219D8A453EFBB
:1046A000A3F055EFA3F01FEFA4F0A9ECC9F0000EA2
:1046B0000E01C26F899A040E0001646F0C0E636FC5
:1046C000330EE82EFED7632FFCD7642FFAD700D025
:1046D0000E0E0E01C26FABECC9F08D0E0001636FC0
:1046E000410EE82EFED7632FFCD7A9ECC9F0000ECF
:1046F0000E01C26F899A470E0001636F1F0EE82EEC
:10470000FED7632FFCD700D0000E0001676F000EAC
:10471000666FF2EFA3F066516025636F6751612108
:10472000646F63C0F6FF64C0F7FF000EF86E0E0EF4
:10473000F76403D00800F55005D0F6CFE9FFF7CFB6
:10474000EAFFEF500001686F000E6A6F070E696F95
:104750000E0E0E01C26FABECC9F0090E0001636FC3
:10476000B90EE82EFED7632FFCD7A9ECC9F0000ED6
:104770000E01C26F899A69C063F0010E0001646F77
:10478000632BC5EFA3F0D8906437632FC3EFA3F07A
:104790000001645168150009D8B4D1EFA3F0D3EF3C
:1047A000A3F0DDEFA3F01B0E0001636F550EE82EA2
:1047B000FED7632FFCD7E5EFA3F0090E0001636F6E
:1047C000B90EE82EFED7632FFCD700016907D8A0E9
:1047D0006A076ABFF0EFA3F0EEEFA3F0A8EFA3F033
:1047E000664B672B6251636F646B6351665D675103
:1047F000800A656F6451800A6559D8A002EFA4F061
:1048000004EFA4F08BEFA3F00E0E0E01C26FABEC21
:10481000C9F0090E0001636FB90EE82EFED7632FB1
:10482000FCD7A9ECC9F0000E0E01C26F899A4E0E9A
:104830000001636FEB0EE82EFED7632FFCD7060E48
:1048400000016219D8A427EFA4F029EFA4F0F2EF39
:10485000A4F0A9ECC9F0000E0E01C26F899A040EF3
:104860000001646F0C0E636F330EE82EFED7632FCA
:10487000FCD7642FFAD700D00E0E0E01C26FABEC3E
:10488000C9F0320E0001636FDD0EE82EFED7632FF4
:10489000FCD700D0A9ECC9F0000E0E01C26F899AB6
:1048A000190E0001636FEE0EE82EFED7632FFCD7C2
:1048B00000F0000E00016C6F000E6B6F6B516025F5
:1048C000636F6C516121646F63C0F6FF64C0F7FFD2
:1048D000000EF86E0E0EF76403D00800F55005D0F8
:1048E000F6CFE9FFF7CFEAFFEF500001686F000E47
:1048F0006E6F070E6D6F0E0E0E01C26FABECC9F03E
:10490000070E0001636F3A0EE82EFED7632FFCD727
:1049100000F0A9ECC9F0000E0E01C26F899A6DC0BB
:1049200063F0010E0001646F632B99EFA4F0D8903F
:104930006437632F97EFA4F00001645168150009F4
:10494000D8B4A5EFA4F0A7EFA4F0B2EFA4F0130E33
:104950000001636FB20EE82EFED7632FFCD700F084
:10496000BBEFA4F0070E0001636F3A0EE82EFED7EE
:10497000632FFCD700F000016D07D8A06E076EBF53
:10498000C6EFA4F0C4EFA4F07BEFA4F06B4B6C2B4C
:104990006CBFD4EFA4F06C5109E1060E6B5DD8A09A
:1049A000D4EFA4F0D6EFA4F05EEFA4F00E0E0E014B
:1049B000C26FABECC9F0070E0001636F3A0EE82E30
:1049C000FED7632FFCD700F0A9ECC9F0000E0E0152
:1049D000C26F899A4E0E0001636FEB0EE82EFED770
:1049E000632FFCD7120017BEF8EFA4F0FAEFA4F083
:1049F000FBEFA4F0189217BE08EFA5F0175006E1E0
:104A00001604D8B006EFA5F008EFA5F00FEFA5F05B
:104A1000000E0001956F010E946F13EFA5F016C004
:104A200094F017C095F052C196F053C197F018A8B2
:104A30001CEFA5F01EEFA5F023EFA5F00001FE0E80
:104A40009627FF0E97237FC098F080C099F081C011
:104A50009AF082C09BF083C09CF084C09DF085C01A
:104A60009EF086C09FF0000E0001A16F4F0EA06F58
:104A7000000E02019F6FF1EFA5F0A007D8A0A107DB
:104A80000F0E9815A26FA36BA3BF50EFA5F0A35113
:104A900009E10A0EA25DD8A050EFA5F052EFA5F0F3
:104AA0005AEFA5F0570EA225A26F000EA321A36F07
:104AB00060EFA5F0300EA225A26F000EA321A36F18
:104AC000BF0E886FFF0E896F87518A6F8B6B88517D
:104AD0008A2789518B238B510AE11A0E8A5DD8A04F
:104AE00074EFA5F077EFA5F0010E78EFA5F0000EBA
:104AF000906F916B90519111D8B481EFA5F083EF35
:104B0000A5F0B3EFA5F09F0E886FFF0E896F200E02
:104B1000A2118A6F000EA3118B6F88518A278951C9
:104B20008B238B510AE11A0E8A5DD8A09AEFA5F06B
:104B30009DEFA5F0010E9EEFA5F0000E926F936B16
:104B400092519311D8B4A7EFA5F0A9EFA5F0B3EF58
:104B5000A5F0A2C066F0A3C067F03AECC3F066C04F
:104B6000A2F067C0A3F0500E0001A025D96E020E7E
:104B7000A121DA6EA2C0DFFF9407D8A0950796079F
:104B8000D8A0970798C088F099C089F09AC08AF099
:104B90009BC08BF09CC08CF09DC08DF09EC08EF0B1
:104BA0009FC08FF0050EDEEFA5F0D8908F338E33C7
:104BB0008D338C338B338A3389338833E82ED5EFAA
:104BC000A5F088C098F089C099F08AC09AF08BC08F
:104BD0009BF08CC09CF08DC09DF08EC09EF08FC06D
:104BE0009FF00001A1BFFEEFA5F0A15109E1020E67
:104BF000A05DD8A0FEEFA5F000EFA6F030EFA6F084
:104C0000985199119A119B119C119D119E119F1100
:104C1000D8A40DEFA6F00FEFA6F03DEFA5F095BFDD
:104C20001CEFA6F0955106E19405D8B01AEFA6F056
:104C30001CEFA6F03DEFA5F097BF27EFA6F0975128
:104C400008E19605D8A027EFA6F029EFA6F030EFEF
:104C5000A6F018B22EEFA6F030EFA6F03DEFA5F0CB
:104C600018A835EFA6F037EFA6F04DEFA6F0A00795
:104C7000D8A0A107500EA025D96E020EA121DA6E90
:104C800087C0DFFFA007D8A0A107500EA025D96ECE
:104C9000020EA121DA6E300EDF6E7DC072F07EC092
:104CA00073F0500EA025746F020EA121756F96C08F
:104CB00076F097C077F05CECBAF072C07DF073C00C
:104CC0007EF012000B0E0001706F010174510001A3
:104CD000716F010175510001726F736B746BD89025
:104CE0007135756F7235766F7335776F7435786F90
:104CF000030E796F6CC07AF06DC07BF06EC07CF0F3
:104D00006FC07DF0796787EFA6F08FEFA6F07D3555
:104D10007D337C337B337A33792F82EFA6F0000129
:104D200075517A5D606F76517B59616F77517C590F
:104D3000626F78517D59636F72C164F073C165F021
:104D4000000E65BFFF0E666F676F04ECC2F00001D6
:104D50007067ADEFA6F0B5EFA6F06335633362334D
:104D600061336033702FA7EFA6F060C083F061C09D
:104D700084F062C085F063C086F00C0E0001706F95
:104D8000010174510001716F010175510001726FD1
:104D9000736B746B040E756F6CC076F06DC077F03A
:104DA0006EC078F06FC079F07567D9EFA6F0E1EFCB
:104DB000A6F079357933783377337633752FD4EF9E
:104DC000A6F000017151765D606F72517759616F85
:104DD00073517859626F74517959636F010174513D
:104DE00000017A6F0101755100017B6F7C6B7D6B57
:104DF000040E7E6F6CC07FF06DC080F06EC081F0DD
:104E00006FC082F07E6707EFA7F00FEFA7F0823543
:104E10008233813380337F337E2F02EFA7F000018E
:104E20007A517F5D646F7B518059656F7C518159E8
:104E3000666F7D518259676F04ECC2F000017067A4
:104E400024EFA7F02CEFA7F06335633362336133AF
:104E50006033702F1EEFA7F060C08FF061C090F03C
:104E600062C091F063C092F00E0E0001706F8FC0AF
:104E700060F090C061F091C062F092C063F070C1C8
:104E800064F071C165F0000E65BFFF0E666F676F5D
:104E900004ECC2F00001706750EFA7F058EFA7F0E4
:104EA00063356333623361336033702F4AEFA7F0A9
:104EB00060C087F061C088F062C089F063C08AF08A
:104EC00000018751832501011E6F00018851842153
:104ED00001011F6F0001895185210101206F00012F
:104EE0008A5186210101216F1EC160F01FC161F04E
:104EF00020C162F021C163F0050E0001646F000E55
:104F0000656F000E666F000E676F04ECC2F0800ED6
:104F100000016025706F000E6121716F000E62212B
:104F2000726F000E6321736F71C070F072C071F008
:104F300073C072F0736B72BF736970C08BF071C015
:104F40008CF072C08DF073C08EF08BC06CF08CC092
:104F50006DF08DC06EF08EC06FF01200000E00017B
:104F6000636F760E626F000E656F000E646F9CECCF
:104F7000BEF062C099F063C09AF0000199519A1195
:104F8000D8A4C5EFA7F0C7EFA7F0CAEFA7F0F70EB8
:104F900020ECC1F0000E0001636F760E626F000E10
:104FA000656F010E646FEEECBEF0000E00019B6FAA
:104FB000000E636F000E626F5AECC1F0000162C018
:104FC00067F063C068F0000E68BFFF0E696F6A6F1C
:104FD0009B51040D790EF324D96E000EF420DA6E85
:104FE00067C0DEFF68C0DEFF69C0DEFF6AC0DEFFAB
:104FF0009B2B9B51800A790FD8A001EFA8F003EFFB
:10500000A8F0D8EFA7F0000E636F010E626F5AECA4
:10501000C1F0000162C095F063C096F0000E96BF2B
:10502000FF0E976F986F17ECC9F081C067F082C0D0
:1050300068F083C069F084C06AF0050E26EFA8F01E
:105040000001D8906A33693368336733E82E20EF64
:10505000A8F07DC06BF07EC06CF07FC06DF080C0AA
:105060006EF0040ED8906B376C376D376E37E82EC4
:1050700032EFA8F079C06FF07AC070F07BC071F0A9
:105080007CC072F00C0ED8906F3770377137723762
:10509000E82E43EFA8F06B516F11736F6C517011D4
:1050A000746F6D517111756F6E517211766F67511A
:1050B00073110101226F0001685174110101236F06
:1050C0000001695175110101246F00016A517611C7
:1050D0000101256F8DC067F08EC068F08FC069F048
:1050E00090C06AF0050E7BEFA8F00001D8906A33FB
:1050F000693368336733E82E75EFA8F089C06BF029
:105100008AC06CF08BC06DF08CC06EF0040ED8902D
:105110006B376C376D376E37E82E87EFA8F085C098
:105120006FF086C070F087C071F088C072F00C0E0E
:10513000D8906F37703771377237E82E98EFA8F034
:105140006B516F11736F6C517011746F6D517111E0
:10515000756F6E517211766F6751731101012A6F6D
:1051600000016851741101012B6F00016951751123
:1051700001012C6F00016A51761101012D6F91C060
:1051800068F092C069F093C06AF00001676B9551B6
:1051900067110101266F0001965168110101276F07
:1051A0000001975169110101286F000198516A119E
:1051B0000101296F12002C04D8A4E1EFA8F0E3EF5D
:1051C000A8F0F1EFA8F065BAE8EFA8F0EAEFA8F0D0
:1051D000F1EFA8F0000E626E0F0136813689020EE3
:1051E0002C6E62A4F6EFA8F0F8EFA8F003EFA9F098
:1051F0000F0136A5FEEFA8F000EFA9F003EFA9F02C
:1052000062949BECC5F065A208EFA9F00AEFA9F043
:105210000DEFA9F0A198F6EFA9F062A012EFA9F0A6
:1052200014EFA9F022EFA9F00F0136A11AEFA9F0AF
:105230001CEFA9F022EFA9F064ECB0F0A088040EF6
:105240002C6E629062A827EFA9F029EFA9F033EF46
:10525000A9F00F0136A92FEFA9F031EFA9F033EF34
:10526000A9F059ECC7F062AC38EFA9F03AEFA9F019
:1052700066EFA9F00F0136AD40EFA9F042EFA9F0BB
:1052800050EFA9F0000E3C6E730E3B6E000E3D6EAB
:10529000000E3E6E000E406E010E3F6E20ECC0F020
:1052A000629C0EECC7F02750D8B459EFA9F05BEF21
:1052B000A9F05CEFA9F027062750D8A462EFA9F067
:1052C00064EFA9F066EFA9F0BBECB7F062AA6BEF50
:1052D000A9F06DEFA9F077EFA9F00F0136AB73EFEE
:1052E000A9F075EFA9F077EFA9F009ECC3F062A27D
:1052F0007CEFA9F07EEFA9F095EFA9F00F0136A39E
:1053000084EFA9F086EFA9F095EFA9F07F0E3C6E2F
:105310003B68000E3D6E000E3E6E000E406E010EAC
:105320003F6E20ECC0F0000E636E040E2C609BEF0D
:10533000A9F09DEFA9F0A0EFA9F0A198F6EFA9F0D0
:105340000F0136A7A6EFA9F0A8EFA9F0F5EFA9F095
:10535000000E4D6E62A6AFEFA9F0B1EFA9F0F5EF28
:10536000A9F064CF2DF02D30E832E8320F0B286E13
:1053700062962DB4BEEFA9F0C0EFA9F0CAEFA9F074
:10538000470E2824D96EDA6A010EDA220101DF7095
:10539000D2EFA9F04A0E2824D96EDA6A010EDA2279
:1053A0000101DF702850D8A4D8EFA9F0DAEFA9F0F6
:1053B000DEEFA9F0E5ECBBF0ECEFA9F0000E3C6EDF
:1053C000720E3B6E2D0E3D6E000E3E6E000E406E58
:1053D000000E3F6E20ECC0F04D2A030E4D64F3EF3B
:1053E000A9F0F5EFA9F0AAEFA9F0A19812000EC15B
:1053F00097F00FC198F010C199F011C19AF087C0D1
:1054000097F088C098F089C099F08AC09AF0810E10
:1054100000018B6FFF0E8C6F97C08DF098C08EF0DF
:1054200099C08FF09AC090F0180E1CEFAAF0D89097
:1054300090338F338E338D33E82E17EFAAF08D51D2
:105440008B25956F000E8C21966F96BF31EFAAF0D9
:10545000965109E1170E955DD8A031EFAAF033EF10
:10546000AAF03DEFAAF087C087F088C088F089C015
:1054700089F08AC08AF001EFABF096BF42EFAAF044
:1054800044EFAAF0B5EFAAF095C08BF0FF0E8C6F39
:10549000FF0E8D6F7F0E8E6F000E8F6F8B6753EF39
:1054A000AAF05BEFAAF08F358F338E338D338C33B8
:1054B0008B2F4EEFAAF08CC091F08DC092F08EC071
:1054C00093F08FC094F00001915197158B6F92511A
:1054D00098158C6F935199158D6F94519A158E6F05
:1054E0008B518C118D118E11D8A479EFAAF07BEF1E
:1054F000AAF07DEFAAF033EFAAF097C08BF098C026
:105500008CF099C08DF09AC08EF0200E8DEFAAF02D
:10551000D8908E338D338C338B33E82E88EFAAF0FE
:105520008B518C118D118E11D8B499EFAAF09BEF8D
:10553000AAF0A3EFAAF09151972792519823935183
:10554000992394519A23911D8B6F921D8C6F931DFB
:105550008D6F941D8E6F8B5197178C5198178D51AD
:1055600099178E519A17F9EFAAF097C08BF098C04F
:105570008CF099C08DF09AC08EF0200EC5EFAAF085
:10558000D8908E338D338C338B33E82EC0EFAAF056
:105590008B518C118D118E11D8A4D1EFAAF0D3EFBD
:1055A000AAF0DDEFAAF0000E976F000E986F000EC4
:1055B000996F000E9A6FF9EFAAF0D89097358B6F1C
:1055C00098358C6F99358D6F9A358E6F8B518C1104
:1055D0008D118E11D8B4EFEFAAF0F1EFAAF0F9EF28
:1055E000AAF0000E976F000E986F800E996FBF0E95
:1055F0009A6F97C087F098C088F099C089F09AC0D8
:105600008AF012000001686F00016851D8B40BEFF6
:10561000ABF00DEFABF02FEFABF063BF14EFABF0DF
:1056200012EFABF02FEFABF060C064F061C065F03B
:1056300062C066F063C067F0641F651F661F671F66
:10564000642B000E65236623672364C06AF065C07F
:105650006BF066C06CF067C06DF037EFABF060C008
:105660006AF061C06BF062C06CF063C06DF06051B5
:10567000611162116311D8A440EFABF042EFABF0BF
:105680004CEFABF0000E606F000E616F000E626FAA
:10569000000E636FDDEFABF0960E696F56EFABF067
:1056A000692BD8906D336C336B336A33000E6A15F7
:1056B000646F000E6B15656F000E6C15666FFE0E45
:1056C0006D15676F6451651166116711D8A46BEF92
:1056D000ABF06DEFABF050EFABF07BEFABF0692BC5
