:020000040000FA
:04000000F0EF00F02D
:100008005C82FACF4EF0FBCF4FF0E9CF50F0EACF49
:1000180051F0E1CF52F0E2CF53F0D9CF54F0DACF1C
:1000280055F0F3CF56F0F4CF57F0F6CF58F0F7CF9E
:1000380059F0F8CF5AF0F5CF5BF0F2AC26EF00F0AC
:1000480028EF00F0D2EF00F0A0A82DEF00F02FEF7E
:1000580000F03AEF00F0A1A834EF00F036EF00F01E
:100068003AEF00F016ECA7F0D2EF00F0A0A63FEFB1
:1000780000F041EF00F063EF00F0A1A646EF00F0BA
:1000880048EF00F063EF00F002D856EF00F00500EB
:10009800FA6E01014951FD6E4A51FE6E4B51FF6ED9
:1000A800FA501200A1A65BEF00F05DEF00F0D2EF6E
:1000B80000F0000E1D6E010E1C6ED2EF00F09DA622
:1000C80068EF00F06AEF00F096EF00F09EA66FEF81
:1000D80000F071EF00F096EF00F002D87FEF00F02B
:1000E8000500FA6E01014951FD6E4A51FE6E4B51F1
:1000F800FF6EFA5012009EA684EF00F086EF00F023
:10010800D2EF00F0010174057511D8A48EEF00F04C
:1001180090EF00F0D2EF00F0000E756F000E746FD4
:10012800D2EF00F09DAA9BEF00F09DEF00F0B4EF36
:1001380000F09EAAA2EF00F0A4EF00F0B4EF00F0E8
:1001480002D8B2EF00F00500FA6E01013A51FD6ED7
:100158003B51FE6E3C51FF6EFA501200D2EF00F098
:100168009DA8B9EF00F0BBEF00F0D2EF00F09EA819
:10017800C0EF00F0C2EF00F0D2EF00F002D8D0EFED
:1001880000F00500FA6E01013751FD6E3851FE6E20
:100198003951FF6EFA501200D2EF00F05BC0F5FF44
:1001A8005AC0F8FF59C0F7FF58C0F6FF57C0F4FF10
:1001B80056C0F3FF55C0DAFF54C0D9FF53C0E2FF61
:1001C80052C0E1FF51C0EAFF50C0E9FF4FC0FBFF3A
:0C01D8004EC0FAFF5C921100CFEFBFF0A8
:10FE380000508F01D48E01C48E01F67101607801E3
:10FE4800448F01C27D01948F018C8F01848F017CC6
:10FE58008F01748F016C8F01648F01388F01568177
:10FE680001555AF148A0CB555AF14820C3555AF1CB
:10FE780048C0CD555AF14840C5555AF14880C93057
:10FE8800FFD2FE06FF8FFE09024300020100C032C6
:10FE980009040000010202010005240010010424E5
:10FEA800020205240600010524010001070581035B
:10FEB8000A000209040100020A0000000705020204
:10FEC8004000000705820240000034034D0069002D
:10FED800630072006F006300680069007000200012
:10FEE80054006500630068006E006F006C006F00CE
:10FEF80067007900200049006E0063002E0012039D
:10FF08006D006F0072006900740061006B00610091
:10FF18001201000202000008D8040A0000010102D0
:10FF28000001555AF148688B04030904202D3E202E
:10FF38004661696C20436F6D6D616E642121200DEF
:10FF48000A0025352E316620DF432025352E3166FF
:10FF58002025250D0A0025362E316620685061209F
:10FF680025352E31660D0A00202D3E204C454420B3
:10FF78004F6666212120200D0A00202D3E204C4589
:10FF880044204F6E212120200D0A0025352E316690
:10FF9800DF432025352E316625250025362E31668E
:10FFA800206850612025352E316600423A30782588
:10FFB80030347800473A30782530347800493A3080
:10FFC800782530347800523A30782530347800314A
:10FFD800300D0A0031310D0A003230323000494EFE
:10FFE80046004E414E00696E66006E616E006C669A
:08FFF80000313000303500003B
:020000040001F9
:10000000000E0001C26F000EC16F9DC0D3F09EC0F4
:10001000D4F09FC0D5F0A0C0D6F0D6BF14EF80F0CA
:1000200012EF80F02AEF80F0000EC26F010EC16F58
:10003000D3C060F0D4C061F0D5C062F0D6C063F028
:10004000F4ECC4F060C0D3F061C0D4F062C0D5F06D
:1000500063C0D6F0000E0001DA6F000ED96F4EC1FA
:10006000C6F04FC1C7F0C151C211D8A43AEF80F019
:100070003CEF80F043EF80F018A441EF80F043EFB5
:1000800080F05DEF80F0C151C211D8A44AEF80F03A
:100090004CEF80F052EF80F0000EAC6F2B0EAB6F88
:1000A00056EF80F0000EAC6F2D0EAB6FABC054F26C
:1000B000D94BDA2BC607D8A0C707D3C060F0D4C08D
:1000C00061F0D5C062F0D6C063F076ECB5F0000107
:1000D00060056111D8A46FEF80F071EF80F0C8EF78
:1000E00080F0BF0EA26FFF0EA36FA151A46FA56B8E
:1000F000A251A427A351A523A5510AE11A0EA45D7C
:10010000D8A085EF80F088EF80F0010E89EF80F0B5
:10011000000EAD6FAE6BAD51AE11D8B492EF80F062
:1001200094EF80F0A2EF80F0540ED925606F020E9C
:10013000DA21616FE60E626FFF0E636FA5ECC1F00E
:10014000AEEF80F0540ED925606F020EDA21616F98
:10015000EE0E626FFF0E636FA5ECC1F00001FD0EA5
:10016000C627FF0EC7239BC072F09CC073F0540ECD
:100170000001746F020E756FC6C076F0C7C077F0CD
:1001800097ECB8F072C09BF073C09CF0DEEF85F086
:10019000D3C060F0D4C061F0D5C062F0D6C063F0C7
:1001A00076ECB5F0000160516111D8A4DAEF80F06F
:1001B000DCEF80F01BEF81F0BF0EA26FFF0EA36F8C
:1001C000A151A46FA56BA251A427A351A523A551AA
:1001D0000AE11A0EA45DD8A0F0EF80F0F3EF80F0F2
:1001E000010EF4EF80F0000EAF6FB06BAF51B011A5
:1001F000D8B4FDEF80F0FFEF80F00DEF81F0540EEA
:10020000D925606F020EDA21616FEA0E626FFF0E70
:10021000636FA5ECC1F0AEEF80F0540ED925606F8E
:10022000020EDA21616FF20E626FFF0E636FA5ECB2
:10023000C1F0AEEF80F0000EDB6F000EDC6F800EC1
:10024000DD6F3F0EDE6F000ED86F000ED76FD3C08C
:1002500060F0D4C061F0D5C062F0D6C063F0000E8B
:10026000646F000E656F000E666F000E676F84ECA2
:10027000BBF00001D8B03FEF81F041EF81F0C6EF55
:1002800081F060EF81F0DBC060F0DCC061F0DDC0C8
:1002900062F0DEC063F0000E646F000E656F200E2A
:1002A000666F410E676F30EC96F060C0DBF061C0A6
:1002B000DCF062C0DDF063C0DEF00001D74BD82B6C
:1002C000D3C079F0D4C07AF0D5C07BF0D6C07CF032
:1002D000000E646F000E656F200E666F410E676F33
:1002E000DBC060F0DCC061F0DDC062F0DEC063F056
:1002F00030EC96F060C07DF061C07EF062C07FF0AF
:1003000063C080F06AECB3F00001D8B08AEF81F0EE
:100310008CEF81F043EF81F0ACEF81F0DBC06EF049
:10032000DCC06FF0DDC070F0DEC071F0000E726FE7
:10033000000E736F200E746F410E756F0BEC9EF004
:100340006EC0DBF06FC0DCF070C0DDF071C0DEF0BD
:100350000001D707D8A0D807D3C079F0D4C07AF06D
:10036000D5C07BF0D6C07CF0DBC07DF0DCC07EF079
:10037000DDC07FF0DEC080F06AECB3F00001D8A0F1
:10038000C4EF81F0C6EF81F08EEF81F0A1C066F07E
:10039000676B13ECC1F000016651C86FC8C0C5F0AF
:1003A000670EC819D8A4D7EF81F0D9EF81F0FFEF1D
:1003B00081F016501710D8A4E0EF81F0E2EF81F041
:1003C000E6EF81F0000E176E010E166E17BEF3EF0A
:1003D00081F0175006E11604D8B0F1EF81F0F3EF89
:1003E00081F0F9EF81F0000EC46F060EC36F08EFC5
:1003F00082F016C0C3F017C0C4F008EF82F017BE39
:1004000004EF82F006EF82F0F3EF81F0F9EF81F074
:10041000670EC819D8A40FEF82F011EF82F040EFF9
:1004200082F0D8AF1FEF82F0FC0ED75DFF0ED859D7
:10043000D8A01DEF82F01FEF82F03EEF82F0FF0E9A
:10044000A26FFF0EA36FC3C0A4F0C4C0A5F0A25159
:10045000A427A351A523D751A45DA551800AA66F57
:10046000D851800AA659D8A038EF82F03AEF82F02E
:100470003EEF82F0660EC56F40EF82F0650EC56FED
:10048000C3C0BBF0C4C0BCF0670EC819D8A44BEF02
:1004900082F04DEF82F05DEF82F0660EC519D8A4B0
:1004A00054EF82F056EF82F05FEF82F0D8BF5DEF3D
:1004B00082F05BEF82F05FEF82F0BB4BBC2B660EED
:1004C000C519D8A466EF82F068EF82F088EF82F059
:1004D000D8BF6FEF82F06DEF82F07BEF82F0000EFD
:1004E000DB6F000EDC6F800EDD6F3F0EDE6F000EE7
:1004F000D86F000ED76F670EC819D8B482EF82F09C
:1005000084EF82F088EF82F0D751BB27D851BC230B
:10051000000ED26F000ED16FD3C0C9F0D4C0CAF0A4
:10052000D5C0CBF0D6C0CCF0DBC0A7F0DCC0A8F0C3
:10053000DDC0A9F0DEC0AAF01AEF83F0C9C06EF0EA
:10054000CAC06FF0CBC070F0CCC071F0DBC072F0ED
:10055000DCC073F0DDC074F0DEC075F00BEC9EF013
:100560006EC087F06FC088F070C089F071C08AF0EB
:1005700032ECA8F087C0CDF088C0CEF089C0CFF0B3
:100580008AC0D0F0CDC060F0CEC061F0CFC062F0C4
:10059000D0C063F0E6ECB2F060C0BFF061C0C0F064
:1005A000C9C089F0CAC08AF0CBC08BF0CCC08CF037
:1005B000DBC064F0DCC065F0DDC066F0DEC067F073
:1005C000CDC060F0CEC061F0CFC062F0D0C063F0AB
:1005D00030EC96F060C08DF061C08EF062C08FF09C
:1005E00063C090F090ECC3F089C0C9F08AC0CAF033
:1005F0008BC0CBF08CC0CCF0DBC06EF0DCC06FF0F9
:10060000DDC070F0DEC071F0000E0001726F000EF0
:10061000736F200E746F410E756F0BEC9EF06EC001
:10062000DBF06FC0DCF070C0DDF071C0DEF0000107
:10063000D14BD22BBB51D15DD251800AA26FBC519C
:10064000800AA259D8A027EF83F029EF83F09EEF0C
:1006500082F0DBC060F0DCC061F0DDC062F0DEC0C3
:1006600063F0000E646F000E656FA00E666F400EA3
:10067000676F30EC96F060C0CDF061C0CEF062C024
:10068000CFF063C0D0F0C9C079F0CAC07AF0CBC057
:100690007BF0CCC07CF0CDC07DF0CEC07EF0CFC072
:1006A0007FF0D0C080F06AECB3F00001D8B05BEF0F
:1006B00083F05DEF83F067EF83F0000ECD6F000EE7
:1006C000CE6F000ECF6F000ED06F90EF83F0C9C0D9
:1006D00060F0CAC061F0CBC062F0CCC063F0CDC0A6
:1006E00064F0CEC065F0CFC066F0D0C067F084EC97
:1006F000BBF00001D8A07FEF83F081EF83F090EF93
:1007000083F0BFB186EF83F088EF83F090EF83F042
:10071000000ECD6F000ECE6F000ECF6F000ED06FAB
:10072000D3C079F0D4C07AF0D5C07BF0D6C07CF0CD
:10073000CDC07DF0CEC07EF0CFC07FF0D0C080F0C5
:100740001CEC8DF079C0C9F07AC0CAF07BC0CBF048
:100750007CC0CCF0A7C0DBF0A8C0DCF0A9C0DDF005
:10076000AAC0DEF0650E0001C519D8B4BAEF83F057
:10077000BCEF83F0C2EF83F0D7C0BDF0D8C0BEF0AD
:10078000C6EF83F0000EBE6F000EBD6F000EBA6F95
:10079000000EB96F000EB86F000EB76F000ED26F6B
:1007A000000ED16FC3EF84F0C9C06EF0CAC06FF005
:1007B000CBC070F0CCC071F0DBC072F0DCC073F065
:1007C000DDC074F0DEC075F00BEC9EF06EC087F0FB
:1007D0006FC088F070C089F071C08AF032ECA8F068
:1007E00087C0CDF088C0CEF089C0CFF08AC0D0F0ED
:1007F000CDC060F0CEC061F0CFC062F0D0C063F079
:10080000E6ECB2F060C0BFF061C0C0F018B80BEF0A
:1008100084F00DEF84F02BEF84F00001BF51C01184
:10082000D8A415EF84F017EF84F02BEF84F0670E57
:10083000C819D8A41EEF84F020EF84F02BEF84F0C9
:10084000BEBF27EF84F025EF84F02BEF84F0B74B89
:10085000B82B76EF84F00001B951BA11D8A433EF68
:1008600084F035EF84F05FEF84F0BEBF3CEF84F09E
:100870003AEF84F05FEF84F0540ED925D96E020E62
:10088000DA21DA6E2E0EDF6ED94BDA2BC607D8A02E
:10089000C707000EBA6F010EB96F5FEF84F0540EF8
:1008A000D925D96E020EDA21DA6E300EDF6ED94B01
:1008B000DA2BC607D8A0C707B707D8A0B807B75123
:1008C000B811D8A466EF84F068EF84F04FEF84F09D
:1008D000540ED925D96E020EDA21DA6EBF51300FCF
:1008E000DF6ED94BDA2BC607D8A0C707C9C089F07D
:1008F000CAC08AF0CBC08BF0CCC08CF0DBC064F0F7
:10090000DCC065F0DDC066F0DEC067F0CDC060F031
:10091000CEC061F0CFC062F0D0C063F030EC96F092
:1009200060C08DF061C08EF062C08FF063C090F047
:1009300090ECC3F089C0C9F08AC0CAF08BC0CBF07C
:100940008CC0CCF0DBC06EF0DCC06FF0DDC070F0AE
:10095000DEC071F0000E0001726F000E736F200E8A
:10096000746F410E756F0BEC9EF06EC0DBF06FC0C4
:10097000DCF070C0DDF071C0DEF00001BD07D8A072
:10098000BE07D14BD22BBB51D15DD251800AA26F91
:10099000BC51800AA259D8B0D0EF84F0D2EF84F0D5
:1009A000E0EF84F0DABFDEEF84F0DA5109E14B0EBC
:1009B000D95DD8A0DEEF84F0E0EF84F0D4EF83F0CF
:1009C000B951BA11D8A4E7EF84F0E9EF84F0FAEF57
:1009D00084F018A8EEEF84F0F0EF84F0FAEF84F0E2
:1009E000540ED925D96E020EDA21DA6E2E0EDF6E84
:1009F000D94BDA2B540ED925D96E020EDA21DA6ED4
:100A0000000EDF6E650EC519D8A409EF85F00BEF57
:100A100085F0B3EF80F0000ED26F4F0ED16F540E01
:100A2000D125D96E020ED221DA6E000EDF6E000ED5
:100A3000C26F000EC16FD8BF22EF85F020EF85F0A6
:100A40002AEF85F0000EC26F010EC16FD76DD81F5F
:100A5000D8B0D82B000EC46F020EC36F5CEF85F0C8
:100A6000D107D8A0D207540ED125D96E020ED221BB
:100A7000DA6ED7C060F0D8C061F0000E636F0A0E66
:100A8000626F7CECBAF000016051300FDF6ED7C0AE
:100A900060F0D8C061F0000E636F0A0E626F5FEC09
:100AA000B9F060C0D7F061C0D8F00001C307D8A08A
:100AB000C407C607D8A0C707D751D811D8A463EF79
:100AC00085F065EF85F030EF85F0C4BF72EF85F0FB
:100AD000C45106E1C305D8B070EF85F072EF85F020
:100AE00030EF85F0D107D8A0D207C151C211D8A4E8
:100AF0007CEF85F07EEF85F084EF85F0000EB26F1D
:100B00002B0EB16F88EF85F0000EB26F2D0EB16F16
:100B1000540ED125D96E020ED221DA6EB1C0DFFF9C
:100B2000C607D8A0C707D107D8A0D207BF0EA26FAB
:100B3000FF0EA36FA151A46FA56BA251A427A351CF
:100B4000A523A5510AE11A0EA45DD8A0AAEF85F04D
:100B5000ADEF85F0010EAEEF85F0000EB56FB66B10
:100B6000B551B611D8A4B7EF85F0B9EF85F0BFEF56
:100B700085F0000EB46F650EB36FC3EF85F0000E05
:100B8000B46F450EB36F540ED125D96E020ED2212B
:100B9000DA6EB3C0DFFFC607D8A0C707540ED92549
:100BA000606F020EDA21616F540ED125626F020E62
:100BB000D221636FA5ECC1F0B3EF80F01200E1C069
:100BC000D9FFE2C0DAFFDECFF6FFDDCFF7FF000E80
:100BD000F86E0800F550250AD8A4F1EF85F0F3EF80
:100BE00085F077EF89F0E1C0D9FFE2C0DAFFDE2AB5
:100BF000000EDD22000E01014F6F000E4E6F4EC140
:100C000018F04FC119F016681768000E9D6F000E9E
:100C10009C6F55EF86F01880E1C0D9FFE2C0DAFF83
:100C2000DE2A000EDD2255EF86F018820CEF86F0EA
:100C300018840CEF86F018860CEF86F018880CEFFD
:100C400086F0000E01019D6F010E9C6F55EF86F03E
:100C5000E1C0D9FFE2C0DAFFDECFF6FFDDCFF7FF5C
:100C6000000EF86E0800F5500001E56FE66BE651E6
:100C7000000AD8B43EEF86F021EF86F0E551200A55
:100C8000D8B41BEF86F0030AD8B41EEF86F0080A2A
:100C9000D8B418EF86F0060AD8B40BEF86F01D0A18
:100CA000D8B415EF86F021EF86F001019C519D111B
:100CB000D8B45DEF86F05FEF86F028EF86F018A0DD
:100CC00064EF86F066EF86F067EF86F01892E1C079
:100CD000D9FFE2C0DAFFDECFF6FFDDCFF7FF000E6F
:100CE000F86E0800F5502A0AD8A479EF86F07BEF59
:100CF00086F0A4EF86F0E1C0D9FFE2C0DAFFDE2A79
:100D0000000EDD22E3C0D9FFE4C0DAFFDFCFE5F05B
:100D1000020EDE26DFCFE6F0000EDD22E5C0D9FFB1
:100D2000E6C0DAFFDECF4EF1DDCF4FF14FBF9DEFD2
:100D300086F09BEF86F0EBEF86F018804E6D4F1F2C
:100D4000D8B04F2BEBEF86F0E1C0D9FFE2C0DAFF5D
:100D5000DECF67F0DDCF68F0EFECAAF067C04EF1B0
:100D600068C04FF1BBEF86F0E1C0D9FFE2C0DAFF07
:100D7000DE2A000EDD22D00E0001E56FFF0EE66FC9
:100D8000E1C0D9FFE2C0DAFFDECFF6FFDDCFF7FF2B
:100D9000000EF86E0800F550E76FE86BE551E727A5
:100DA000E651E823E8510AE10A0EE75DD8A0DBEF3F
:100DB00086F0DEEF86F0010EDFEF86F0000E010117
:100DC0009E6F9F6B9E519F11D8A4E9EF86F0EBEFC9
:100DD00086F0B4EF86F0E1C0D9FFE2C0DAFFDECFE3
:100DE000F6FFDDCFF7FF000EF86E0800F5502E0A73
:100DF000D8A4FDEF86F0FFEF86F082EF87F0000EBB
:100E0000176E000E166EE1C0D9FFE2C0DAFFDE2ACF
:100E1000000EDD22E1C0D9FFE2C0DAFFDECFF6FF2F
:100E2000DDCFF7FF000EF86E0800F5502A0AD8A4AF
:100E30001CEF87F01EEF87F03BEF87F0E1C0D9FF92
:100E4000E2C0DAFFDE2A000EDD22E3C0D9FFE4C0F3
:100E5000DAFFDFCFE5F0020EDE26DFCFE6F0000E90
:100E6000DD22E5C0D9FFE6C0DAFFDECF16F0DDCF28
:100E700017F082EF87F0E1C0D9FFE2C0DAFFDECFE2
:100E800067F0DDCF68F0EFECAAF067C016F068C03D
:100E900017F052EF87F0E1C0D9FFE2C0DAFFDE2A97
:100EA000000EDD22D00E0001E56FFF0EE66FE1C0FF
:100EB000D9FFE2C0DAFFDECFF6FFDDCFF7FF000E8D
:100EC000F86E0800F550E76FE86BE551E727E6514B
:100ED000E823E8510AE10A0EE75DD8A072EF87F037
:100EE00075EF87F0010E76EF87F0000E0101A06F1D
:100EF000A16BA051A111D8A480EF87F082EF87F0F9
:100F00004BEF87F0E1C0D9FFE2C0DAFFDECFF6FF9A
:100F1000DDCFF7FF000EF86E0800F5500001666F98
:100F2000676B13ECC1F0000166510101A86FA85175
:100F3000D8B49DEF87F09FEF87F0E1EF87F0E1C035
:100F4000D9FFE2C0DAFFDECFE5F0DDCFE6F0010E3B
:100F50000001E527000EE623E5C0F6FFE6C0F7FF37
:100F6000000EF86E0800F550666F676B13ECC1F069
:100F7000000166510101A96FA951D8B4C2EF87F0F1
:100F8000C4EF87F0E1EF87F0E1C0D9FFE2C0DAFFFC
:100F9000DECFE5F0DDCFE6F0020E0001E527000E22
:100FA000E623E5C0F6FFE6C0F7FF000EF86E080086
:100FB000F550666F676B13ECC1F0000166510101DB
:100FC000AA6F660EA819D8A4E8EF87F0EAEF87F0B9
:100FD0002CEF88F0E1C0D9FFE2C0DAFFDECFF6FFE8
:100FE000DDCFF7FF000EF86E0800F5CFABF1E1C0E2
:100FF000D9FFE2C0DAFFDE2A000EDD22E3C0D9FF0E
:10100000E4C0DAFFDFCFE5F0040EDE26DFCFE6F046
:10101000000EDD22E5C0D9FFE6C0DAFFDECFA4F185
:10102000DECFA5F1DECFA6F1DECFA7F1DFC09BF0CA
:10103000E0C09CF0A4C19DF0A5C19EF0A6C19FF0A8
:10104000A7C1A0F0ABC1A1F000EC80F09BC0DFF025
:101050009CC0E0F095EF89F0A80E0001606F010ED2
:10106000616FF60E626FFF0E636F000E656F020E0A
:10107000646F59ECB7F0000160516111D8A443EFDF
:1010800088F045EF88F0C5EF88F0E1C0D9FFE2C0F5
:10109000DAFFDECFE5F0DDCFE6F0010EE527000E4A
:1010A000E623E5C0F6FFE6C0F7FF000EF86E080085
:1010B000F5CFABF1BF0EE56FFF0EE66FE1C0D9FFD4
:1010C000E2C0DAFFDECFF6FFDDCFF7FF000EF86EED
:1010D0000800F550E76FE86BE551E727E651E82394
:1010E000E8510AE11A0EE75DD8A079EF88F07CEFAD
:1010F00088F0010E7DEF88F0000E0101A26FA36B56
:10110000A251A311D8B487EF88F089EF88F0A3EF3C
:1011100088F0E3C0D9FFE4C0DAFFDFCFE5F0040ECA
:10112000DE26DFCFE6F0000EDD22E5C0D9FFE6C007
:10113000DAFFDECFA4F1DECFA5F1DECFA6F1DECF60
:10114000A7F1BBEF88F0E3C0D9FFE4C0DAFFDFCF3F
:10115000E5F0040EDE26DFCFE6F0000EDD22E5C06E
:10116000D9FFE6C0DAFFDECFA4F1DECFA5F1DECFF6
:10117000A6F1DECFA7F1020EE1C0D9FFE2C0DAFF8F
:10118000DE26000EDD2216EF88F0E1C0D9FFE2C0B6
:10119000DAFFDECFF6FFDDCFF7FF000EF86E0800B6
:1011A000F550780AD8B4D7EF88F0D9EF88F0EDEF92
:1011B00088F0E1C0D9FFE2C0DAFFDECFF6FFDDCF75
:1011C000F7FF000EF86E0800F550580AD8A4EBEFB0
:1011D00088F0EDEF88F03EEF89F0E1C0D9FFE2C082
:1011E000DAFFDECFF6FFDDCFF7FF000EF86E080066
:1011F000F5CFABF1E1C0D9FFE2C0DAFFDE2A000E85
:10120000DD22E3C0D9FFE4C0DAFFDFCFE5F0020E54
:10121000DE26DFCFE6F0000EDD22E5C0D9FFE6C016
:10122000DAFFDECFE7F0DDCFE8F0E7C094F1E8C009
:1012300095F10101966B976B986B996B9A6B9B6B11
:10124000DFC07DF0E0C07EF094C17FF095C180F0FA
:1012500096C181F097C182F098C183F099C184F062
:101260009AC185F09BC186F0ABC187F02EECA3F04C
:101270007DC0DFF07EC0E0F095EF89F0E1C0D9FFDE
:10128000E2C0DAFFDECFF6FFDDCFF7FF000EF86E2B
:101290000800F550250AD8A450EF89F052EF89F0E4
:1012A0006AEF89F0E1C0D9FFE2C0DAFFDE2A000E62
:1012B000DD22000E636F250E626FDFC064F0E0C0B8
:1012C00065F0CBECB7F0000E0001E06F010EDF6FB0
:1012D00095EF89F0E1C0D9FFE2C0DAFFDE2A000E07
:1012E000DD22000EE06F000EDF6F95EF89F0E1C0A8
:1012F000D9FFE2C0DAFFDECFF6FFDDCFF7FF000E49
:10130000F86E0800F5500001626F636BDFC064F097
:10131000E0C065F0CBECB7F0E1C0D9FFE2C0DAFF86
:10132000DE2A000EDD2263EF89F012001AC171F08F
:101330001BC172F01CC173F01DC174F00001743543
:101340007433733372337133000E71258A6F060E56
:1013500072218B6FFF0E73218C6FFF0E74218D6FC6
:101360000B0E716F020E726F8AC073F08BC074F037
:101370008CC075F08DC076F07267C1EF89F0C9EF4F
:1013800089F076357633753374337333722FBCEF4F
:1013900089F073C060F074C061F075C062F076C00F
:1013A00063F0020E0001776F8AC078F08BC079F08D
:1013B0008CC07AF08DC07BF07767E1EF89F0E9EFC0
:1013C00089F07B357B337A3379337833772FDCEFD1
:1013D00089F078C064F079C065F07AC066F07BC0AF
:1013E00067F03FECC0F000017167F9EF89F001EFA1
:1013F0008AF063356333623361336033712FF3EF07
:1014000089F060C07EF061C07FF062C080F063C090
:1014100081F07EC060F07FC061F080C062F081C06A
:1014200063F062C164F063C165F00001000E65BF46
:10143000FF0E666F676F3FECC0F060C082F061C066
:1014400083F062C084F063C085F064C160F065C160
:1014500061F00001000E61BFFF0E626F636F8AC012
:1014600064F08BC065F08CC066F08DC067F03FEC17
:10147000C0F0D89000016035716F6135726F6235D0
:10148000736F6335746F82517125826F835172213E
:10149000836F84517321846F85517421856F01019D
:1014A00066510001716F010167510001726F736B2A
:1014B000746B72C074F071C073F0726B716B020E5A
:1014C000756F82C076F083C077F084C078F085C0F5
:1014D00079F075676EEF8AF076EF8AF079357933B7
:1014E000783377337633752F69EF8AF000017151C5
:1014F0007625826F72517721836F73517821846FC3
:1015000074517921856F0D0E716F020E726F8AC052
:1015100073F08BC074F08CC075F08DC076F072677C
:1015200094EF8AF09CEF8AF0763576337533743316
:101530007333722F8FEF8AF073C060F074C061F064
:1015400075C062F076C063F0020E0001776F8AC04A
:1015500078F08BC079F08CC07AF08DC07BF0776723
:10156000B4EF8AF0BCEF8AF07B357B337A33793382
:101570007833772FAFEF8AF078C064F079C065F0E8
:101580007AC066F07BC067F03FECC0F00001716785
:10159000CCEF8AF0D4EF8AF0633563336233613382
:1015A0006033712FC6EF8AF060C07EF061C07FF0BB
:1015B00062C080F063C081F0120E0001716F030EF3
:1015C000726F68C160F069C161F0000E61BFFF0E0B
:1015D000626F636F7EC064F07FC065F080C066F0AC
:1015E00081C067F03FECC0F060C073F061C074F080
:1015F00062C075F063C076F00001726702EF8BF095
:101600000AEF8BF076357633753374337333722F7C
:10161000FCEF8AF06AC160F06BC161F00001000E5E
:1016200061BFFF0E626F636F8AC064F08BC065F0AC
:101630008CC066F08DC067F03FECC0F000016335F0
:10164000633362336133603360517325776F615167
:101650007421786F62517521796F635176217A6FA9
:10166000716735EF8BF03DEF8BF07A357A33793354
:1016700078337733712F30EF8BF077C08AF078C0F2
:101680008BF079C08CF07AC08DF00F0E0001716F75
:10169000000E8A25606F800E8B21616F000E8C21F9
:1016A000626F000E8D21636F90C164F091C165F08F
:1016B000666B676B3FECC0F00001716762EF8BF007
:1016C0006AEF8BF063356333623361336033712FBC
:1016D0005CEF8BF060C08AF061C08BF062C08CF070
:1016E00063C08DF000018A518B118C118D11D8A42B
:1016F0007CEF8BF07EEF8BF088EF8BF0000E6D6F40
:10170000000E6E6F000E6F6F000E706F1BEF8DF08E
:101710000C0E716F82C072F083C073F084C074F0DD
:1017200085C075F0716797EF8BF09FEF8BF0753583
:101730007533743373337233712F92EF8BF06DC046
:1017400076F06EC077F06FC078F070C079F000016D
:10175000761F771F781F791F762B000E772378234B
:1017600079237251765D7A6F735177597B6F74511B
:1017700078597C6F755179597D6F000E7A25606FAD
:10178000000E7B21616F100E7C21626F000E7D21A7
:10179000636F350E646F0C0E656F000E666F000E82
:1017A000676F3FECC0F060C086F061C087F062C038
:1017B00088F063C089F0800E0001895DD8B0E3EF46
:1017C0008BF0E5EF8BF002EF8CF0D8908635606FF0
:1017D0008735616F8835626F8935636F8AC064F0C1
:1017E0008BC065F08CC066F08DC067F084ECBCF0F7
:1017F00060C086F061C087F062C088F063C089F085
:101800001EEF8CF086C060F087C061F088C062F087
:1018100089C063F08AC064F08BC065F08CC066F04C
:101820008DC067F084ECBCF0D89000016035866F05
:101830006135876F6235886F6335896F86C071F057
:1018400087C072F088C073F089C074F0040E2FEF67
:101850008CF00001D8907433733372337133E82EF7
:1018600029EF8CF071C060F072C061F073C062F05B
:1018700074C063F086C075F087C076F088C077F0DA
:1018800089C078F0040E4AEF8CF0D8907833773323
:1018900076337533E82E45EF8CF075C064F076C072
:1018A00065F077C066F078C067F03FECC0F00E0ED0
:1018B00060EF8CF00001D8906333623361336033A2
:1018C000E82E5AEF8CF060C07EF061C07FF062C0FD
:1018D00080F063C081F00C0E716F5CC160F05DC17F
:1018E00061F0000E61BFFF0E626F636F7EC064F037
:1018F0007FC065F080C066F081C067F03FECC0F04B
:101900000001716786EF8CF08EEF8CF063356333E6
:10191000623361336033712F80EF8CF060C08AF0E6
:1019200061C08BF062C08CF063C08DF00D0E0001C1
:10193000716F86C072F087C073F088C074F089C080
:1019400075F0030EA9EF8CF0D890753374337333B0
:101950007233E82EA4EF8CF072C060F073C061F0B7
:1019600074C062F075C063F05EC164F05FC165F081
:10197000000E65BFFF0E666F676F3FECC0F00001A1
:101980007167C5EF8CF0CDEF8CF063356333623354
:1019900061336033712FBFEF8CF060C082F061C0A3
:1019A00083F062C084F063C085F0040E0001716FA3
:1019B00060C172F061C173F0000E73BFFF0E746FEF
:1019C000756F8A517225766F8B517321776F8C51A9
:1019D0007421786F8D517521796F825176257A6FD8
:1019E000835177217B6F845178217C6F85517921D8
:1019F0007D6F7167FEEF8CF006EF8DF07D357D33E6
:101A00007C337B337A33712FF9EF8CF000018651F0
:101A10007A25866F87517B21876F88517C21886F5B
:101A200089517D21896F86C06DF087C06EF088C0B6
:101A30006FF089C070F0120000017C51800B856F3F
:101A40007C517C25876F7BAF28EF8DF02AEF8DF0DE
:101A50002BEF8DF087818751D8B431EF8DF033EFC4
:101A60008DF048EF8DF08729D8A439EF8DF03BEF4A
:101A70008DF043EF8DF0000E796F000E7A6F000E3F
:101A80007B6F000E7C6F7B8F000E7C6F50EF8DF0B4
:101A9000000E796F000E7A6F000E7B6F000E7C6F68
:101AA0008051800B866F85518619D8B45AEF8DF01E
:101AB0005CEF8DF05DEF8DF0858D80518025866F18
:101AC0007FAF65EF8DF067EF8DF068EF8DF0868169
:101AD0008651D8B46EEF8DF070EF8DF085EF8DF0FC
:101AE0008629D8A476EF8DF078EF8DF080EF8DF019
:101AF000000E7D6F000E7E6F000E7F6F000E806FF8
:101B00007F8F000E806F8DEF8DF0000E7D6F000EC9
:101B10007E6F000E7F6F000E806F8751865DD8B09C
:101B200094EF8DF096EF8DF0BDEF8DF085AD9BEFCE
:101B30008DF09DEF8DF09FEF8DF0800E851B87C09F
:101B400088F086C087F088C086F079C088F07DC0B4
:101B500079F088C07DF07AC088F07EC07AF088C0C5
:101B60007EF07BC088F07FC07BF088C07FF07CC0B7
:101B700088F080C07CF088C080F0000E886F8751AC
:101B800086C081F0826B815F000E825B82BFD2EFE4
:101B90008DF0825109E11A0E815DD8A0D2EF8DF04F
:101BA000D4EF8DF00BEF8EF079517A117B117C110F
:101BB000D8A4DDEF8DF0E0EF8DF0010EE1EF8DF0B8
:101BC000000E886F000E796F000E7A6F000E7B6F2B
:101BD000000E7C6F86C087F014EF8EF088A1F3EFC3
:101BE0008DF0F5EF8DF0FBEF8DF0D8908831010985
:101BF000886FFDEF8DF0D890883379A102EF8EF0D9
:101C000004EF8EF005EF8EF0888F7C357C337B33CC
:101C10007A337933872B8651875DD8A012EF8EF007
:101C200014EF8EF0EEEF8DF085BD19EF8EF01BEF07
:101C30008EF05BEF8EF08751D8A421EF8EF023EF6A
:101C40008EF02DEF8EF0000E796F000E7A6F000E81
:101C50007B6F000E7C6F7CEF8FF07D5179277E517A
:101C60007A237F517B2380517C237CA13AEF8EF035
:101C70003CEF8EF0E8EF8EF088A141EF8EF043EF5D
:101C80008EF049EF8EF0D89088310109886F4BEFC4
:101C90008EF0D890883379A150EF8EF052EF8EF00D
:101CA00053EF8EF0888F7C357C337B337A337933F6
:101CB000872BE8EF8EF07D51795D7E517A597F5107
:101CC0007B597C51800A816F8051800A8159D8B03C
:101CD0006CEF8EF06EEF8EF099EF8EF079517D5DA6
:101CE000816F7A517E59826F7B517F59836F7C510E
:101CF0008059846FFF0E8125796FFF0E82217A6FE4
:101D0000FF0E83217B6FFF0E84217C6F800E851B6D
:101D1000886D8851D8A48FEF8EF091EF8EF0A1EFEF
:101D20008EF0010E7927000E7A237B237C23A1EF0E
:101D30008EF07D51795F7E517A5B7F517B5B805164
:101D40007C5B79517A117B117C11D8A4AAEF8EF0BB
:101D5000ACEF8EF0E1EF8EF08851D8A4B2EF8EF0A8
:101D6000B4EF8EF0E1EF8EF0000E796F000E7A6F17
:101D7000000E7B6F000E7C6F7CEF8FF0D890793770
:101D80007A377B377C3788AFC8EF8EF0CAEF8EF09A
:101D9000CBEF8EF0798188A1D0EF8EF0D2EF8EF06C
:101DA000D6EF8EF0D8808837D8EF8EF0D89088376D
:101DB0008751D8B4DEEF8EF0E0EF8EF0E1EF8EF0D9
:101DC00087077BAFE6EF8EF0E8EF8EF0BEEF8EF088
:101DD000000E866F88AFEFEF8EF0F1EF8EF009EF17
:101DE0008FF088C081F07F0E8117D8B4FAEF8EF0A3
:101DF000FCEF8EF000EF8FF0010E866F09EF8FF091
:101E000079A105EF8FF007EF8FF009EF8FF0FCEF6E
:101E10008EF08651D8B40FEF8FF011EF8FF03CEFBA
:101E20008FF0010E7927000E7A237B237C237CA17F
:101E30001CEF8FF01EEF8FF03CEF8FF079C081F038
:101E40007AC082F07BC083F07CC084F08435843318
:101E500083338233813381C079F082C07AF083C0CA
:101E60007BF084C07CF08729D8B439EF8FF03BEF4A
:101E70008FF03CEF8FF0872B8729D8B442EF8FF09B
:101E800044EF8FF04CEF8FF08751D8A44AEF8FF0DA
:101E90004CEF8FF05EEF8FF0000E796F000E7A6FCF
:101EA000000E7B6F000E7C6F8751D8A45AEF8FF025
:101EB0005CEF8FF05EEF8FF0000E856F87A163EF10
:101EC0008FF065EF8FF068EF8FF07B8F69EF8FF009
:101ED0007B9FD89087317C6F85AF71EF8FF073EF68
:101EE0008FF074EF8FF07C8F79C079F07AC07AF040
:101EF0007BC07BF07CC07CF01200000E0001636FA1
:101F00002A0E626F000E656F000E646FD7ECBCF096
:101F100062C0CAF163C0CBF10101CA51CB11D8A490
:101F200094EF8FF096EF8FF09CEF8FF0000E5BEC4C
:101F3000BFF08A0E5BECBFF09C0E0101B66FD70EAE
:101F4000E82EFED7B62FFCD7000E0001636F2A0ED5
:101F5000626F000E656F000E646F29ECBDF062C009
:101F6000CAF163C0CBF10101CA51CB11D8A4BBEFB8
:101F70008FF0BDEF8FF0C3EF8FF0000E5BECBFF082
:101F80000A0E5BECBFF051ECC7F0080E0101B76F11
:101F90004F0EB66F190EE82EFED7B62FFCD7B72F0F
:101FA000FAD700D0000E0001636F2A0E626F000E98
:101FB000656F000E646FD7ECBCF062C0CAF163C0FD
:101FC000CBF10101CA51CB11D8A4E9EF8FF0EBEFAF
:101FD0008FF0EEEF8FF0030E5BECBFF0000E000110
:101FE000636F2A0E626F000E656F010E646F29EC3D
:101FF000BDF0000E0101CD6F000ECC6F000E000190
:10200000636F000E626F95ECBFF000016251010139
:10201000166F000E0001636F000E626F95ECBFF04B
:10202000000162510101126F125116C1B6F1B76B76
:10203000B6C1B7F1B66BB611006FB751016FCC4B9B
:10204000CD2B160ECC25D96E010ECD21DA6E000EE9
:102050000001636F000E626F95ECBFF000016251EA
:10206000DF6E120E0101CC25D96E010ECD21DA6E84
:10207000000E0001636F000E626F95ECBFF000016F
:102080006251DF6E160E0101CC25D96E010ECD21F5
:10209000DA6EDF50B66FB651B86FB76B120ECC2543
:1020A000D96E010ECD21DA6EDF50B96FB951B71379
:1020B000000EB813D890CC35D96ECD35DA6E000E3F
:1020C000D926010EDA22B7C1DEFFB8C1DDFFCC4B45
:1020D000CD2B160ECC25D96E010ECD21DA6E000E59
:1020E0000001636F000E626F95ECBFF0000162515A
:1020F000DF6E120E0101CC25D96E010ECD21DA6EF4
:10210000000E0001636F000E626F95ECBFF00001DE
:102110006251DF6E160E0101CC25D96E010ECD2164
:10212000DA6EDF50B66FB651B86FB76B120ECC25B2
:10213000D96E010ECD21DA6EDF50B96FB951B713E8
:10214000000EB813D890CC35D96ECD35DA6E000EAE
:10215000D926010EDA22B7C1DEFFB8C1DDFFCC4BB4
:10216000CD2B160ECC25D96E010ECD21DA6E000EC8
:102170000001636F000E626F95ECBFF000016251C9
:10218000DF6E120E0101CC25D96E010ECD21DA6E63
:10219000000E0001636F010E626F95ECBFF000014D
:1021A0006251DF6E160E0101CC25D96E010ECD21D4
:1021B000DA6EDF50B66FB651B86FB76B120ECC2522
:1021C000D96E010ECD21DA6EDF50B96FB951B71358
:1021D000000EB813D890CC35D96ECD35DA6E000E1E
:1021E000D926010EDA22B7C1DEFFB8C1DDFF51ECFE
:1021F000C7F048ECC3F0020E0101B76F380EB66F9E
:10220000AD0EE82EFED7B62FFCD7B72FFAD7000EAB
:102210000101CD6F000ECC6FBA0E0001F16F010EFF
:10222000F26FCE0EF36FFF0EF46F00C1F5F001C137
:10223000F6F0D5ECC1F0BA0E0001676F010E686FC1
:10224000D5ECBAF0020E0101B76F380EB66FAD0EC5
:10225000E82EFED7B62FFCD7B72FFAD70101CC4B0B
:10226000CD2BBA0E0001F16F010EF26FBC0EF36FB1
:10227000FF0EF46FD8900101CC35D96ECD35DA6EF2
:10228000000ED926010EDA22DECFF5F0DDCFF6F012
:10229000D5ECC1F0BA0E0001676F010E686FD5EC86
:1022A000BAF0020E0101B76F380EB66FAD0EE82E10
:1022B000FED7B62FFCD7B72FFAD70101CC4BCD2BC9
:1022C000000E00016B6F000E6A6F000E6D6F010E45
:1022D0006C6F7CECC5F0020E0101B76F380EB66F63
:1022E000AD0EE82EFED7B62FFCD7B72FFAD7BA0E11
:1022F0000001F16F010EF26FB30EF36FFF0EF46F7A
:10230000D8900101CC35D96ECD35DA6E000ED926C4
:10231000010EDA22DECFF5F0DDCFF6F0D5ECC1F01C
:10232000BA0E0001676F010E686FD5ECBAF0020EAD
:102330000101B76F380EB66FAD0EE82EFED7B62F7F
:10234000FCD7B72FFAD70101CC4BCD2BBA0E000129
:10235000F16F010EF26FC50EF36FFF0EF46FD890A0
:102360000101CC35D96ECD35DA6E000ED926010EBD
:10237000DA22DECFF5F0DDCFF6F0D5ECC1F0BA0E03
:102380000001676F010E686FD5ECBAF0020E010113
:10239000B76F380EB66FAD0EE82EFED7B62FFCD74E
:1023A000B72FFAD71200000E01011A250001996F0C
:1023B000D40E01011B2100019A6FFE0E01011C21A8
:1023C00000019B6FFF0E01011D2100019C6F0B0E90
:1023D000706F010180510001606F000E60BFFF0E41
:1023E000616F626F636F99C064F09AC065F09BC0C3
:1023F00066F09CC067F03FECC0F00001706703EF2F
:1024000092F00BEF92F063356333623361336033E4
:10241000702FFDEF91F0000E00016025956F800E8A
:102420006121966F000E6221976F000E6321986FF5
:102430000A0E706F01017F510001606F000E60BFD6
:10244000FF0E616F626F636F99C064F09AC065F0B0
:102450009BC066F09CC067F03FECC0F00001706765
:1024600034EF92F03CEF92F06335633362336133C3
:102470006033702F2EEF92F060C085F061C086F05F
:1024800062C087F063C088F00A0E0001706F95C0CB
:1024900060F096C061F097C062F098C063F085C0AC
:1024A00064F086C065F087C066F088C067F03FECD6
:1024B000C0F0000170675FEF92F067EF92F0633554
:1024C0006333623361336033702F59EF92F0000E43
:1024D00000016025896F000E61218A6F200E622144
:1024E0008B6F000E63218C6F0F0E706F56C160F002
:1024F00057C161F0000E61BFFF0E626F636F99C03C
:1025000064F09AC065F09BC066F09CC067F03FEC39
:10251000C0F0010158510001716F010159510001D2
:10252000726F736B746B140ED89071377237733788
:102530007437E82E94EF92F06CC075F06DC076F0B1
:102540006EC077F06FC078F00E0ED8907537763782
:1025500077377837E82EA5EF92F07151755D796F76
:10256000725176597A6F735177597B6F74517859DC
:102570007C6F6051795D7D6F61517A597E6F6251D8
:102580007B597F6F63517C59806F000E7D25816F71
:10259000400E7E21826F000E7F21836F000E80210E
:1025A000846F7067D6EF92F0DEEF92F0843584335B
:1025B000833382338133702FD1EF92F081C08DF05D
:1025C00082C08EF083C08FF084C090F00E0E0001A8
:1025D000706F89C060F08AC061F08BC062F08CC0FF
:1025E00063F05AC164F05BC165F0000E65BFFF0E79
:1025F000666F676F3FECC0F0000E00016025716FE1
:10260000200E6121726F000E6221736F000E632134
:10261000746F70670EEF93F016EF93F074357433A8
:10262000733372337133702F09EF93F071C091F0EF
:1026300072C092F073C093F074C094F08DC060F0DB
:102640008EC061F08FC062F090C063F091C064F002
:1026500092C065F093C066F094C067F03FECC0F0A4
:1026600060C099F061C09AF062C09BF063C09CF0BA
:10267000070E0001706F0F0E716F99C072F09AC053
:1026800073F09BC074F09CC075F071674AEF93F0D3
:1026900052EF93F075357533743373337233712F92
:1026A00045EF93F072C060F073C061F074C062F0E7
:1026B00075C063F00F0E0001766F99C077F09AC075
:1026C00078F09BC079F09CC07AF076676AEF93F05F
:1026D00072EF93F07A357A33793378337733762F14
:1026E00065EF93F077C064F078C065F079C066F06C
:1026F0007AC067F03FECC0F00001706782EF93F0A2
:102700008AEF93F063356333623361336033702F44
:102710007CEF93F060C095F061C096F062C097F0D6
:1027200063C098F0040E0001706F95C060F096C011
:1027300061F097C062F098C063F00101815100011F
:10274000646F000E64BFFF0E656F666F676F3FECCE
:10275000C0F000017067AFEF93F0B7EF93F063350F
:102760006333623361336033702FA9EF93F000015C
:102770006051995D996F61519A599A6F62519B5955
:102780009B6F63519C599C6F9CBFC9EF93F0CBEF3B
:1027900093F0CDEF93F0D5EF93F0000E996F000E0C
:1027A0009A6F000E9B6F000E9C6F9CBFE6EF93F03C
:1027B0009905000E9A59000E9B59190E9C59D8B0D4
:1027C000E4EF93F0E6EF93F0E8EF93F0F0EF93F09F
:1027D000000E996F000E9A6F000E9B6F190E9C6F82
:1027E0000C0E706F99C071F09AC072F09BC073F0BC
:1027F0009CC074F07067FFEF93F007EF94F07435AE
:102800007433733372337133702FFAEF93F071C0F6
:102810006CF072C06DF073C06EF074C06FF0120097
:1028200099ECC6F08B808B82F28EF28C1F0E010128
:10283000F16F710EF06F1E0EE82EFED7F02FFCD751
:10284000F12FFAD700F0280EC66E000E00016B6F54
:10285000000E6A6F000E6D6F280E6C6F000E6F6FAA
:10286000010E6E6F000E716F100E706F6FECB6F090
:10287000DD0E0001F16FFF0EF26FAEECC6F07A0EC6
:102880000101F16FC10EF06F810EE82EFED7F02F1F
:10289000FCD7F12FFAD700D03CECC4F07A0E01013E
:1028A000F16FC10EF06F810EE82EFED7F02FFCD72E
:1028B000F12FFAD700D03BEC9CF07A0E0101F16FBA
:1028C000C10EF06F810EE82EFED7F02FFCD7F12F4E
:1028D000FAD700D048ECC3F0D70E0001F16FFF0E1D
:1028E000F26FAEECC6F0100E0101F56F1F0EF66F21
:1028F000040EF76F1F0EF86F140EF96F1F0EFA6FAC
:10290000040EFB6F000EFC6F000E0001686F000EDE
:10291000676FF50E696F010E6A6F7AECBDF00F0EEE
:102920000101F56F090EF66F0F0EF76F090EF86FC4
:102930000F0EF96F090EFA6F110EFB6F000EFC6F90
:10294000000E0001686F010E676FF50E696F010ED2
:102950006A6F7AECBDF01F0E0101F56F110EF66F74
:10296000110EF76F1F0EF86F110EF96F110EFA6F3F
:102970001F0EFB6F000EFC6F000E0001686F020E51
:10298000676FF50E696F010E6A6F7AECBDF048EC67
:10299000C3F0130E0101F16F440EF06F440EE82EE8
:1029A000FED7F02FFCD7F12FFAD700F0000E000170
:1029B0006B6F000E6A6F000E6D6F000E6C6F7CEC1B
:1029C000C5F0E10E0001676FFF0E686FD5ECBAF03D
:1029D000000E85ECC2F0F90E0001676FFF0E686F04
:1029E000D5ECBAF0010E85ECC2F0FC0E0001676F69
:1029F000FF0E686FD5ECBAF0020E85ECC2F07A0ECD
:102A00000101F16FC10EF06F810EE82EFED7F02F9D
:102A1000FCD7F12FFAD700D0DC0E0001F16FFF0ECA
:102A2000F26FAEECC6F07DEC8FF081A01AEF95F05E
:102A30001CEF95F025EF95F02A0E0001606FFF0E58
:102A4000616F060E626F86ECA1F041EC9AF0030E06
:102A50000101015DD8A02FEF95F031EF95F035EF32
:102A600095F08B808B9244EF95F0030E055DD8A016
:102A70003CEF95F03EEF95F042EF95F08B908B8216
:102A800044EF95F08B908B9248ECC3F03D0E010122
:102A9000F16FE10EF06F3F0EE82EFED7F02FFCD75E
:102AA000F12FFAD700D080B058EF95F05AEF95F09B
:102AB000DEEF95F0200E2C6060EF95F062EF95F060
:102AC00064EF95F02EEF96F065A269EF95F06BEF4D
:102AD00095F06DEF95F02EEF96F02B50D8A473EF94
:102AE00095F075EF95F0DCEF95F0000E00016B6F3F
:102AF000030E6C6F400E6D6FC2ECB9F00101F46F04
:102B0000000EFD6FC2EF95F0000EFD25D96EDA6A5A
:102B1000030EDA22000EFD25E16EE26A040EE222C7
:102B2000DFCFE7FFC1EF95F0000EFD25D96EDA6A21
:102B3000040EDA22000EFD25E16EE26A030EE222A7
:102B4000E750F06FF029DF6EC1EF95F0000EFD2524
:102B5000D96EDA6A030EDA22DF50F06FF16BF151B1
:102B6000000AD8B4B6EF95F094EF95F0F0510A0A48
:102B7000D8B484EF95F0070AD8B484EF95F094EFB9
:102B800095F0FD2BF451FD5DD8A0C9EF95F0CBEF8A
:102B900095F0A6EF95F0F451D8B4D1EF95F0D3EFBE
:102BA00095F0DCEF95F0000E0001606F040E616F90
:102BB000F4C162F083ECC6F019ECAAF046EC98F090
:102BC00027ECC7F00009D8B4E8EF95F0EAEF95F0EC
:102BD00015EF95F02FECC2F00101F36FF35102EC09
:102BE000C2F010EF96F08B84820E0001F16FFF0EA1
:102BF000F26FAEECC6F015EF95F08B94700E0001FD
:102C0000F16FFF0EF26FAEECC6F015EF95F0340EDB
:102C10000001F16FFF0EF26FAEECC6F015EF95F00C
:102C20000101F351F06FF16BF151000AD8B41BEFC1
:102C300096F007EF96F0F051480AD8B4F3EF95F00C
:102C4000040AD8B4FDEF95F0240AD8B4F3EF95F058
:102C5000040AD8B4FDEF95F007EF96F0F0EF00F01E
:102C600000016351800B6C6F63516325726F62AF1B
:102C70003CEF96F03EEF96F03FEF96F07281725186
:102C8000D8B445EF96F047EF96F05AEF96F07229D8
:102C9000D8A44DEF96F04FEF96F057EF96F0000E58
:102CA000606F000E616F000E626F000E636F628FC7
:102CB00062EF96F0000E606F000E616F000E626FA3
:102CC000000E636F6751800B6C1B67516725716F36
:102CD00066AF6DEF96F06FEF96F070EF96F0718142
:102CE0007151D8B476EF96F078EF96F08BEF96F0BE
:102CF0007129D8A47EEF96F080EF96F088EF96F0D9
:102D0000000E646F000E656F000E666F000E676F39
:102D1000668F93EF96F0000E646F000E656F000EE5
:102D2000666F000E676F7151D8B499EF96F09BEF04
:102D300096F0A3EF96F07251D8A4A1EF96F0A3EF0E
:102D400096F0ADEF96F0000E606F000E616F000E12
:102D5000626F000E636F45EF98F066516003F3CF2A
:102D600077F0F4CF78F077516D6F6E6B6F6B706B9F
:102D70007851736F746B756B766B65516103F3CF2C
:102D800077F0F4CF78F077516D27000E6E236F2324
:102D9000702378517327000E7423752376236451B2
:102DA0006203F3CF77F0F4CF78F077516D27000E00
:102DB0006E236F23702378517327000E74237523BD
:102DC00076236FC070F06EC06FF06DC06EF06D6BEB
:102DD00064516103F3CF77F0F4CF78F077516D272A
:102DE00078516E23000E6F23000E7023655160032F
:102DF000F3CF77F0F4CF78F077516D2778516E23C9
:102E0000000E6F23000E70236FC070F06EC06FF065
:102E10006DC06EF06D6B64516003F3CF77F0F4CF4B
:102E200078F077516D2778516E23000E6F23000ED6
:102E3000702366516103F3CF77F0F4CF78F07751C8
:102E4000732778517423000E7523000E7623655185
:102E50006203F3CF77F0F4CF78F07751732778518E
:102E60007423000E7523000E762366516203F3CFA0
:102E700077F0F4CF78F07751686F7851696F6A6BAB
:102E80006B6B6AC06BF069C06AF068C069F0686B10
:102E900068517327695174236A5175236B517623E6
:102EA0006DC068F06EC069F06FC06AF070C06BF002
:102EB000190E60EF97F0D8906B336A33693368333B
:102EC000E82E5BEF97F068517327695174236A51BC
:102ED00075236B5176236FC070F06EC06FF06DC0BC
:102EE0006EF06D6B715172C068F0696B6827000EEF
:102EF0006923820E6825776FFF0E6921786F96EF40
:102F000097F0D890733774377537763770AF8BEF8B
:102F100097F08DEF97F08EEF97F07381D8906D3723
:102F20006E376F3770377707D8A0780775AF9BEF8C
:102F300097F09DEF97F081EF97F0000E716F70AFF3
:102F4000A4EF97F0A6EF97F0CAEF97F0FF0E6D157C
:102F5000686FFF0E6E15696FFF0E6F156A6F7F0E3B
:102F600070156B6F685169116A116B11D8B4BBEFA2
:102F700097F0BDEF97F0C1EF97F0010E716FCAEFB8
:102F800097F073A1C6EF97F0C8EF97F0CAEF97F0EC
:102F9000BDEF97F07151D8B4D0EF97F0D2EF97F022
:102FA000F6EF97F0010E7327000E74237523762336
:102FB00076A1DDEF97F0DFEF97F0F6EF97F073C0B3
:102FC00068F074C069F075C06AF076C06BF06B355C
:102FD0006B336A336933683368C073F069C074F067
:102FE0006AC075F06BC076F0774B782B78BF01EF35
:102FF00098F0785108E17729D8A001EF98F003EF15
:1030000098F00DEF98F0000E736F000E746F800E45
:10301000756F7F0E766F3BEF98F078BF1AEF98F0E0
:10302000785106E17705D8B018EF98F01AEF98F0CC
:1030300026EF98F0000E736F000E746F000E756F20
:10304000000E766F000E6C6F3BEF98F077C072F059
:10305000FF0E7317FF0E74177F0E7517000E76178D
:1030600072A135EF98F037EF98F038EF98F0758F40
:10307000D8907231766F6C51761373C060F074C063
:1030800061F075C062F076C063F01200000E0101BD
:10309000E06F000EE16F000EE26F000EE36F000EB6
:1030A000E86F000EE96F000EEA6F000EEB6F000E86
:1030B000E46F000EE56F000EE66F000EE76FE9ECBF
:1030C000A5F026C16CF027C16DF028C16EF029C1B2
:1030D0006FF09DECA4F06CC0C8F16DC0C9F16EC07A
:1030E000CAF16FC0CBF11EC16DF01FC16EF020C1DF
:1030F0006FF021C170F096EC89F06DC0CCF16EC01C
:10310000CDF16FC0CEF170C0CFF122C16CF023C100
:103110006DF024C16EF025C16FF0D3EC91F06CC05E
:10312000D0F16DC0D1F16EC0D2F16FC0D3F1C8C182
:1031300060F0C9C161F0CAC162F0CBC163F0010E99
:103140003DECA9F060C06EF061C06FF062C070F03D
:1031500063C071F0000E0001726F000E736FC80E35
:10316000746F420E756F0BEC9EF06EC0ECF16FC089
:10317000EDF170C0EEF171C0EFF1CCC160F0CDC1E6
:1031800061F0CEC162F0CFC163F0000E3DECA9F05A
:1031900060C06EF061C06FF062C070F063C071F02B
:1031A000000E0001726F000E736FC80E746F420E36
:1031B000756F0BEC9EF06EC0E0F16FC0E1F170C076
:1031C000E2F171C0E3F1D0C160F0D1C161F0D2C1D0
:1031D00062F0D3C163F0000E3DECA9F060C06EF068
:1031E00061C06FF062C070F063C071F0000E00014A
:1031F000726F000E736F800E746F440E756F0BEC60
:103200009EF06EC0E8F16FC0E9F170C0EAF171C0E4
:10321000EBF10A0E0001646FD70E656F230E666F27
:103220003C0E676FE8C160F0E9C161F0EAC162F08D
:10323000EBC163F030EC96F060C0D4F161C0D5F121
:1032400062C0D6F163C0D7F1CD0E00017D6FCC0E08
:103250007E6F640E7F6FC10E806FA40E646F700E60
:10326000656F7D0E666F3F0E676FECC160F0EDC15C
:1032700061F0EEC162F0EFC163F030EC96F060C037
:1032800079F061C07AF062C07BF063C07CF01CEC26
:103290008DF079C0D8F17AC0D9F17BC0DAF17CC069
:1032A000DBF1D4C164F0D5C165F0D6C166F0D7C1F9
:1032B00067F0D8C160F0D9C161F0DAC162F0DBC15A
:1032C00063F030EC96F060C07DF061C07EF062C0CB
:1032D0007FF063C080F0290E0001646F5C0E656FA3
:1032E0004F0E666F3F0E676FECC160F0EDC161F08D
:1032F000EEC162F0EFC163F030EC96F060C079F09F
:1033000061C07AF062C07BF063C07CF01CEC8DF091
:1033100079C0DCF17AC0DDF17BC0DEF17CC0DFF189
:10332000DCC179F0DDC17AF0DEC17BF0DFC17CF079
:10333000330E00017D6F330E7E6F390E7F6F420EAC
:10334000806F1CEC8DF079C0E4F17AC0E5F17BC0B0
:10335000E6F17CC0E7F1B80E0001F16F010EF26FEB
:10336000930EF36FFF0EF46FECC1F5F0EDC1F6F0C4
:10337000EEC1F7F0EFC1F8F0E8C1F9F0E9C1FAF0F9
:10338000EAC1FBF0EBC1FCF0D5ECC1F04A0E000144
:10339000F16FFF0EF26FECC1F3F0EDC1F4F0EEC18E
:1033A000F5F0EFC1F6F0E8C1F7F0E9C1F8F0EAC1D5
:1033B000F9F0EBC1FAF0AEECC6F0000E00016B6F55
:1033C000000E6A6F000E6D6F000E6C6F7CECC5F026
:1033D000B80E0001676F010E686FD5ECBAF0B80E39
:1033E0000001F16F010EF26FA30EF36FFF0EF46F89
:1033F000E0C1F5F0E1C1F6F0E2C1F7F0E3C1F8F0A9
:10340000E4C1F9F0E5C1FAF0E6C1FBF0E7C1FCF078
:10341000D5ECC1F05E0E0001F16FFF0EF26FE0C15E
:10342000F3F0E1C1F4F0E2C1F5F0E3C1F6F0E4C17C
:10343000F7F0E5C1F8F0E6C1F9F0E7C1FAF0AEEC5B
:10344000C6F0000E00016B6F000E6A6F000E6D6F0C
:10345000010E6C6F7CECC5F0B80E0001676F010EB9
:10346000686FD5ECBAF03D0E0101B76FE10EB66F93
:103470003F0EE82EFED7B62FFCD7B72FFAD700D0D5
:103480001200070E0101B76F170EB66F6A0EE82E15
:10349000FED7B62FFCD7B72FFAD700F0000E0001E9
:1034A000636F2A0E626F000E656F000E646FD7ECBB
:1034B000BCF062C0CAF163C0CBF10101CA51CB11AB
:1034C000D8A465EF9AF067EF9AF06AEF9AF0030ECE
:1034D0005BECBFF0000E0001636F2A0E626F000EFE
:1034E000656F010E646F29ECBDF0000E0101CD6F18
:1034F000000ECC6F000E0001636F000E626F95EC42
:10350000BFF0000162510101166F000E0001636FF0
:10351000000E626F95ECBFF0000162510101126F65
:10352000125116C1B6F1B76BB6C1B7F1B66BB61191
:10353000006FB751016FCC4BCD2B160ECC25D96E39
:10354000010ECD21DA6E000E0001636F000E626F76
:1035500095ECBFF000016251DF6E120E0101CC2527
:10356000D96E010ECD21DA6E000E0001636F000EE0
:10357000626F95ECBFF000016251DF6E160E010123
:10358000CC25D96E010ECD21DA6EDF50B66FB65163
:10359000B86FB76B120ECC25D96E010ECD21DA6E45
:1035A000DF50B96FB951B713000EB813D890CC35AE
:1035B000D96ECD35DA6E000ED926010EDA22B7C1EA
:1035C000DEFFB8C1DDFFCC4BCD2B160ECC25D96E5E
:1035D000010ECD21DA6E000E0001636F000E626FE6
:1035E00095ECBFF000016251DF6E120E0101CC2597
:1035F000D96E010ECD21DA6E000E0001636F000E50
:10360000626F95ECBFF000016251DF6E160E010192
:10361000CC25D96E010ECD21DA6EDF50B66FB651D2
:10362000B86FB76B120ECC25D96E010ECD21DA6EB4
:10363000DF50B96FB951B713000EB813D890CC351D
:10364000D96ECD35DA6E000ED926010EDA22B7C159
:10365000DEFFB8C1DDFFCC4BCD2B160ECC25D96ECD
:10366000010ECD21DA6E000E0001636F000E626F55
:1036700095ECBFF000016251DF6E120E0101CC2506
:10368000D96E010ECD21DA6E000E0001636F010EBE
:10369000626F95ECBFF000016251DF6E160E010102
:1036A000CC25D96E010ECD21DA6EDF50B66FB65142
:1036B000B86FB76B120ECC25D96E010ECD21DA6E24
:1036C000DF50B96FB951B713000EB813D890CC358D
:1036D000D96ECD35DA6E000ED926010EDA22B7C1C9
:1036E000DEFFB8C1DDFF51ECC7F048ECC3F0020EBD
:1036F0000101B76F380EB66FAD0EE82EFED7B62FAC
:10370000FCD7B72FFAD7000E0101CD6F000ECC6F9A
:10371000BA0E0001F16F010EF26FCE0EF36FFF0EC5
:10372000F46F00C1F5F001C1F6F0D5ECC1F0BA0EAE
:103730000001676F010E686FD5ECBAF09C0E0101B5
:10374000B66FD70EE82EFED7B62FFCD70101CC4BB3
:10375000CD2BBA0E0001F16F010EF26FBC0EF36FAC
:10376000FF0EF46FD8900101CC35D96ECD35DA6EED
:10377000000ED926010EDA22DECFF5F0DDCFF6F00D
:10378000D5ECC1F0BA0E0001676F010E686FD5EC81
:10379000BAF09C0E0101B66FD70EE82EFED7B62FF9
:1037A000FCD70101CC4BCD2B000E00016B6F000E3E
:1037B0006A6F000E6D6F010E6C6F7CECC5F09C0E95
:1037C0000101B66FD70EE82EFED7B62FFCD7BA0E82
:1037D0000001F16F010EF26FB30EF36FFF0EF46F85
:1037E000D8900101CC35D96ECD35DA6E000ED926D0
:1037F000010EDA22DECFF5F0DDCFF6F0D5ECC1F028
:10380000BA0E0001676F010E686FD5ECBAF09C0E1E
:103810000101B66FD70EE82EFED7B62FFCD70101F7
:10382000CC4BCD2BBA0E0001F16F010EF26FC50E1D
:10383000F36FFF0EF46FD8900101CC35D96ECD3502
:10384000DA6E000ED926010EDA22DECFF5F0DDCFDA
:10385000F6F0D5ECC1F0BA0E0001676F010E686F8B
:10386000D5ECBAF09C0E0101B66FD70EE82EFED74C
:10387000B62FFCD71200000E0001636F760E626F48
:10388000000E656F000E646FD7ECBCF062C08DF067
:1038900063C08EF000018D518E11D8A452EF9CF0C0
:1038A00054EF9CF057EF9CF0880E5BECBFF0000EDD
:1038B0000001636F760E626F000E656F010E646F1C
:1038C00029ECBDF0000E00018B6F6B0E8B25D96EBD
:1038D000DA6A000EDA22000E636F000E626F95EC5A
:1038E000BFF000016251DF6E8B2B8B51800A690F94
:1038F000D8A07DEF9CF07FEF9CF065EF9CF0000E70
:10390000636F010E626F95ECBFF000016251826F30
:1039100051ECC7F0000E0001636F760E626F000E6F
:10392000656F000E646FD7ECBCF062C08DF063C0B1
:103930008EF000018D518E11D8A4A1EF9CF0A3EF61
:103940009CF0A6EF9CF0A10E5BECBFF0000E000116
:10395000636F760E626F000E656F010E646F29EC67
:10396000BDF0000E0001636F010E626F95ECBFF0B9
:1039700000016251836F51ECC7F0000E0001636FCC
:10398000760E626F000E656F000E646FD7ECBCF0B0
:1039900062C08DF063C08EF000018D518E11D8A4ED
:1039A000D4EF9CF0D6EF9CF0D9EF9CF0E10E5BECED
:1039B000BFF0000E0001636F760E626F000E656F40
:1039C000010E646F29ECBDF0190E00018C6F6B0EB7
:1039D0008C25D96EDA6A000EDA22000E636F000EB3
:1039E000626F95ECBFF000016251DF6E8C2B8C5141
:1039F000800A610FD8A0FFEF9CF001EF9DF0E7EF88
:103A00009CF0000E636F010E626F95ECBFF0000139
:103A100062518A6F51ECC7F000016B516CC067F0C6
:103A2000686B67C068F0676B67110101706F000118
:103A300068510101716F00016D516EC067F0686BD4
:103A400067C068F0676B671101016E6F0001685114
:103A500001016F6F00016F5170C067F0686B67C044
:103A600068F0676B671101016C6F0001685101011B
:103A70006D6F0001715172C067F0686B67C068F0CC
:103A8000676B67110101906F000168510101916F2F
:103A90000001735174C067F0686B67C068F0676BB2
:103AA000671101016A6F0001685101016B6F00012C
:103AB000755176C067F0686B67C068F0676B671117
:103AC0000101686F000168510101696F00017751C0
:103AD00078C067F0686B67C068F0676B67110101B9
:103AE000666F000168510101676F000179517AC06A
:103AF00067F0686B67C068F0676B67110101646FFE
:103B0000000168510101656F00017B517CC067F0C5
:103B1000686B67C068F0676B67110101626F000135
:103B200068510101636F00017D517EC067F0686BD1
:103B300067C068F0676B67110101606F0001685131
:103B40000101616F00017F5180C067F0686B67C041
:103B500068F0676B671101015E6F00016851010138
:103B60005F6F0001815182C067F0686B67C068F0C9
:103B7000676B671101015C6F0001685101015D6FA6
:103B800083C081F10001845185C067F0686B67C014
:103B900068F0676B671101015A6F000168510101FC
:103BA0005B6F86C080F100018751676F686B673B70
:103BB000683BF00E681767510F0B6813F00E67171C
:103BC00088C069F00F0E6917695167110101586FBC
:103BD000000168510101596F00018951676F686BDD
:103BE000673B683BF00E681767510F0B6813F00EC8
:103BF000671788C069F0693B0F0E69170F0E6917C8
:103C0000695167110101566F000168510101576F39
:103C10008AC07FF1120000017151800B7E6F7151DB
:103C20007125856F70AF17EF9EF019EF9EF01AEFB8
:103C30009EF085818551D8B420EF9EF022EF9EF052
:103C400037EF9EF08529D8A428EF9EF02AEF9EF04A
:103C500032EF9EF0000E6E6F000E6F6F000E706FF1
:103C6000000E716F708F000E716F3FEF9EF0000EAF
:103C70006E6F000E6F6F000E706F000E716F7551DA
:103C8000800B7E1B75517525866F74AF4AEF9EF0D1
:103C90004CEF9EF04DEF9EF086818651D8B453EFE5
:103CA0009EF055EF9EF06AEF9EF08629D8A45BEF58
:103CB0009EF05DEF9EF065EF9EF0000E726F000EBD
:103CC000736F000E746F000E756F748F000E756F3A
:103CD00072EF9EF0000E726F000E736F000E746F25
:103CE000000E756F7251731174117511D8A47BEFAA
:103CF0009EF07DEF9EF095EF9EF0000E6E6F000E31
:103D00006F6F000E706F000E716F800E70137F0E5C
:103D100071137E5171136EC06EF06FC06FF070C082
:103D200070F071C071F0D8EF9FF08551D8A49BEF6F
:103D30009EF09DEF9EF0A7EF9EF0000E6E6F000EBE
:103D40006F6F000E706F000E716FD8EF9FF086518D
:103D500085C076F0776B765F000E775B7F0E7625F9
:103D60007F6F000E7721806F6EC07AF06FC07BF09E
:103D700070C07CF071C07DF0000E6E6F000E6F6F32
:103D8000000E706F000E716F000E816F000E826F5B
:103D9000000E836F000E846F000E866F08EF9FF099
:103DA0008651D8B4D6EF9EF0D8EF9EF0EFEF9EF09C
:103DB000D8907A377B377C377D37D8906E376F371E
:103DC0007037713784AFE7EF9EF0E9EF9EF0EAEFCE
:103DD0009EF06E81D8908137823783378437725155
:103DE0007A5D73517B5974517C5975517D59D8A0B6
:103DF000FCEF9EF0FEEF9EF007EF9FF0848D725176
:103E00007A5F73517B5B74517C5B75517D5B862B54
:103E1000190E86650EEF9FF010EF9FF0D0EF9EF029
:103E20007A517B117C117D11D8B419EF9FF01BEFF3
:103E30009FF033EF9FF0818133EF9FF0D8906E3782
:103E40006F377037713784AF28EF9FF02AEF9FF0FC
:103E50002BEF9FF06E81D89081378237833784377C
:103E60007F07D8A0800770AF38EF9FF03AEF9FF040
:103E70001EEF9FF0000E866F84AF41EF9FF043EF7F
:103E80009FF067EF9FF0FF0E8115766FFF0E821592
:103E9000776FFF0E8315786F7F0E8415796F7651DB
:103EA000771178117911D8B458EF9FF05AEF9FF03D
:103EB0005EEF9FF0010E866F67EF9FF06EA163EFDC
:103EC0009FF065EF9FF067EF9FF05AEF9FF08651EC
:103ED000D8B46DEF9FF06FEF9FF093EF9FF0010E5E
:103EE0006E27000E6F237023712371A17AEF9FF06C
:103EF0007CEF9FF093EF9FF06EC076F06FC077F08D
:103F000070C078F071C079F07935793378337733D0
:103F1000763376C06EF077C06FF078C070F079C0FD
:103F200071F07F4B802B80BF9EEF9FF0805108E1A6
:103F30007F29D8A09EEF9FF0A0EF9FF0ABEF9FF0FE
:103F4000000E806F7F69000E6E6F000E6F6F000EA7
:103F5000706F000E716F80BFB8EF9FF0805106E167
:103F60007F05D8B0B6EF9FF0B8EF9FF0C6EF9FF097
:103F7000000E806F000E7F6F000E6E6F000E6F6F71
:103F8000000E706F000E716F000E7E6F7FC085F0A7
:103F900085A1CDEF9FF0CFEF9FF0D2EF9FF0708F14
:103FA000D3EF9FF0709FD8908531716F89EF9EF0AD
:103FB00012000D013205D8A4E0EF9FF0E2EF9FF070
:103FC000FEEF9FF030511F0B0009D8A4EAEF9FF0DD
:103FD000ECEF9FF0FEEF9FF00D8E030E3119D8A489
:103FE000F4EF9FF0F6EF9FF0FBEF9FF0010E010161
:103FF0008F6FFEEF9FF0000E01018F6F0D013251A8
:10400000D8A405EFA0F007EFA0F085EFA1F03051A4
:104010001F0B020AD8A40FEFA0F011EFA0F085EF5C
:10402000A1F034510F0B0009D8B419EFA0F01BEF29
:10403000A0F085EFA1F034510F0B436E030E4360E7
:1040400024EFA0F026EFA0F085EFA1F0200E2C18B1
:10405000D8A42DEFA0F02FEFA0F085EFA1F00D8EEA
:1040600034BF35EFA0F037EFA0F054EFA0F034519B
:104070000F0B436E4350020D080EF324D96E010E50
:10408000F420DA6EDECF48F0DDCF49F034510F0B6B
:10409000436E446A430E4324D96E010E4420DA6E07
:1040A000DF50476E6FEFA0F034510F0B436E43505B
:1040B000020D100EF324D96E000EF420DA6EDECF5E
:1040C00048F0DDCF49F034510F0B436E446A460E81
:1040D0004324D96E010E4420DA6EDF50476E47B09C
:1040E00074EFA0F076EFA0F07EEFA0F0FB0E481486
:1040F000486EFF0E4914496E83EFA0F0040E48107D
:10410000486E4950496E34BF88EFA0F08AEFA0F0A6
:104110009BEFA0F034510F0B436E4350020D080E7D
:10412000F324D96E010EF420DA6E48C0DEFF49C0D8
:10413000DDFFAAEFA0F034510F0B436E4350020D88
:10414000100EF324D96E000EF420DA6E48C0DEFFA4
:1041500049C0DDFF030E3119D8A4B1EFA0F0B3EFD1
:10416000A0F0EDEFA0F048C0D9FF49C0DAFFDFAE04
:10417000BCEFA0F0BEEFA0F0DFEFA0F034BFC3EFC4
:10418000A0F0C5EFA0F0D3EFA0F034510F0B436EB9
:10419000446A430E4324D96E010E4420DA6E0101B5
:1041A000DF82DFEFA0F034510F0B436E446A460EFE
:1041B0004324D96E010E4420DA6E0101DF8248C02B
:1041C000D9FF49C0DAFF000EDB8448C0D9FF49C0DF
:1041D000DAFF000EDB8E85EFA1F0040E4818486E62
:1041E0004950496E48C0D9FF49C0DAFFDFAEFBEF46
:1041F000A0F0FDEFA0F019EFA1F048C0D9FF49C031
:10420000DAFF7F0EDF1648C0D9FF49C0DAFF000E83
:10421000DB8C000E3C6E050E3B6E48C03DF049C085
:104220003EF0000E406E020E3F6E5BECBEF01FEFE4
:10423000A1F048C0D9FF49C0DAFF000EDB8C040EA4
:104240004818486E4950496E47B229EFA1F02BEF4C
:10425000A1F036EFA1F048C0D9FF49C0DAFFDFAEC8
:1042600034EFA1F036EFA1F06EEFA1F00D0134BFF5
:104270003CEFA1F03EEFA1F04CEFA1F034510F0B59
:10428000436E446A430E4324D96E010E4420DA6E15
:104290000101DF9258EFA1F034510F0B436E446AD5
:1042A000460E4324D96E010E4420DA6E0101DF92DE
:1042B00048C0D9FF49C0DAFF3B0EDF16000E3C6E46
:1042C000050E3B6E48C03DF049C03EF0000E406E0A
:1042D000020E3F6E5BECBEF074EFA1F048C0D9FF58
:1042E00049C0DAFF3B0EDF160D0134510F0B436E50
:1042F000446A260E4324456E0F0E4420466E45C088
:10430000D9FF46C0DAFFFE0EDF161200040E0001D0
:104310006219D8A48EEFA1F090EFA1F05AEFA2F0AD
:10432000E3ECC7F0000E0E01C26F899A040E000183
:10433000646F0C0E636F330EE82EFED7632FFCD72D
:10434000642FFAD700D00E0E0E01C26FE5ECC7F055
:104350008D0E0001636F410EE82EFED7632FFCD750
:10436000E3ECC7F0000E0E01C26F899A470E000100
:10437000636F1F0EE82EFED7632FFCD700D0000E10
:104380000001676F000E666F2DEFA2F06651602589
:10439000636F67516121646F63C0F6FF64C0F7FF0C
:1043A000000EF86E0E0EF76403D00800F55005D02D
:1043B000F6CFE9FFF7CFEAFFEF500001686F000E7C
:1043C0006A6F070E696F0E0E0E01C26FE5ECC7F043
:1043D000090E0001636FB90EE82EFED7632FFCD7DC
:1043E000E3ECC7F0000E0E01C26F899A69C063F05A
:1043F000010E0001646F632B00EFA2F0D8906437C8
:10440000632FFEEFA1F00001645168150009D8B4D4
:104410000CEFA2F00EEFA2F018EFA2F01B0E0001BD
:10442000636F550EE82EFED7632FFCD720EFA2F066
:10443000090E0001636FB90EE82EFED7632FFCD77B
:1044400000016907D8A06A076ABF2BEFA2F029EF25
:10445000A2F0E3EFA1F0664B672B6251636F646BD0
:104460006351665D6751800A656F6451800A6559C2
:10447000D8A03DEFA2F03FEFA2F0C6EFA1F00E0EE4
:104480000E01C26FE5ECC7F0090E0001636FB90EB3
:10449000E82EFED7632FFCD7E3ECC7F0000E0E0129
:1044A000C26F899A4E0E0001636FEB0EE82EFED7A5
:1044B000632FFCD7060E00016219D8A462EFA2F0A8
:1044C00064EFA2F02DEFA3F0E3ECC7F0000E0E01B5
:1044D000C26F899A040E0001646F0C0E636F330E75
:1044E000E82EFED7632FFCD7642FFAD700D00E0E2C
:1044F0000E01C26FE5ECC7F0320E0001636FDD0EF6
:10450000E82EFED7632FFCD700D0E3ECC7F0000EF7
:104510000E01C26F899A190E0001636FEE0EE82E2C
:10452000FED7632FFCD700F0000E00016C6F000E69
:104530006B6F6B516025636F6C516121646F63C059
:10454000F6FF64C0F7FF000EF86E0E0EF76403D09E
:104550000800F55005D0F6CFE9FFF7CFEAFFEF509E
:104560000001686F000E6E6F070E6D6F0E0E0E016C
:10457000C26FE5ECC7F0070E0001636F3A0EE82E3C
:10458000FED7632FFCD700F0E3ECC7F0000E0E015E
:10459000C26F899A6DC063F0010E0001646F632BD6
:1045A000D4EFA2F0D8906437632FD2EFA2F00001CD
:1045B000645168150009D8B4E0EFA2F0E2EFA2F070
:1045C000EDEFA2F0130E0001636FB20EE82EFED7DE
:1045D000632FFCD700F0F6EFA2F0070E0001636F27
:1045E0003A0EE82EFED7632FFCD700F000016D07CE
:1045F000D8A06E076EBF01EFA3F0FFEFA2F0B6EFF9
:10460000A2F06B4B6C2B6CBF0FEFA3F06C5109E168
:10461000060E6B5DD8A00FEFA3F011EFA3F099EF9A
:10462000A2F00E0E0E01C26FE5ECC7F0070E0001FE
:10463000636F3A0EE82EFED7632FFCD700F0E3EC51
:10464000C7F0000E0E01C26F899A4E0E0001636F13
:10465000EB0EE82EFED7632FFCD7120017BE33EF08
:10466000A3F035EFA3F036EFA3F0189217BE43EF97
:10467000A3F0175006E11604D8B041EFA3F043EFC2
:10468000A3F04AEFA3F0000E0001956F010E946FA6
:104690004EEFA3F016C094F017C095F04EC196F0FF
:1046A0004FC197F018A857EFA3F059EFA3F05EEFB2
:1046B000A3F00001FE0E9627FF0E97237FC098F00F
:1046C00080C099F081C09AF082C09BF083C09CF0BA
:1046D00084C09DF085C09EF086C09FF0000E000152
:1046E000A16F4F0EA06F000E0201A36F2CEFA4F07C
:1046F000A007D8A0A1070F0E9815A26FA36BA3BFA8
:104700008BEFA3F0A35109E10A0EA25DD8A08BEFB5
:10471000A3F08DEFA3F095EFA3F0570EA225A26FA3
:10472000000EA321A36F9BEFA3F0300EA225A26F72
:10473000000EA321A36FBF0E886FFF0E896F8751F4
:104740008A6F8B6B88518A2789518B238B510AE1A1
:104750001A0E8A5DD8A0AFEFA3F0B2EFA3F0010E5E
:10476000B3EFA3F0000E906F916B90519111D8B4FC
:10477000BCEFA3F0BEEFA3F0EEEFA3F09F0E886FA7
:10478000FF0E896F200EA2118A6F000EA3118B6F8E
:1047900088518A2789518B238B510AE11A0E8A5D31
:1047A000D8A0D5EFA3F0D8EFA3F0010ED9EFA3F076
:1047B000000E926F936B92519311D8B4E2EFA3F075
:1047C000E4EFA3F0EEEFA3F0A2C066F0A3C067F0A1
:1047D00075ECC1F066C0A2F067C0A3F0540E0001F2
:1047E000A025D96E020EA121DA6EA2C0DFFF9407C8
:1047F000D8A095079607D8A0970798C088F099C0C9
:1048000089F09AC08AF09BC08BF09CC08CF09DC050
:104810008DF09EC08EF09FC08FF0050E19EFA4F0B2
:10482000D8908F338E338D338C338B338A338933E7
:104830008833E82E10EFA4F088C098F089C099F072
:104840008AC09AF08BC09BF08CC09CF08DC09DF00C
:104850008EC09EF08FC09FF00001A1BF39EFA4F081
:10486000A15109E1020EA05DD8A039EFA4F03BEF01
:10487000A4F06BEFA4F0985199119A119B119C111F
:104880009D119E119F11D8A448EFA4F04AEFA4F007
:1048900078EFA3F095BF57EFA4F0955106E194058A
:1048A000D8B055EFA4F057EFA4F078EFA3F097BF7E
:1048B00062EFA4F0975108E19605D8A062EFA4F04A
:1048C00064EFA4F06BEFA4F018B269EFA4F06BEF03
:1048D000A4F078EFA3F018A870EFA4F072EFA4F0A2
:1048E00088EFA4F0A007D8A0A107540EA025D96E88
:1048F000020EA121DA6E87C0DFFFA007D8A0A107B2
:10490000540EA025D96E020EA121DA6E300EDF6E94
:104910007DC072F07EC073F0540EA025746F020E3D
:10492000A121756F96C076F097C077F097ECB8F03C
:1049300072C07DF073C07EF012000B0E0001706F2C
:10494000010170510001716F010171510001726F1D
:10495000736B746BD8907135756F7235766F733574
:10496000776F7435786F030E796F6CC07AF06DC015
:104970007BF06EC07CF06FC07DF07967C2EFA4F071
:10498000CAEFA4F07D357D337C337B337A33792FC6
:10499000BDEFA4F0000175517A5D606F76517B59CF
:1049A000616F77517C59626F78517D59636F6EC129
:1049B00064F06FC165F0000E65BFFF0E666F676F34
:1049C0003FECC0F000017067E8EFA4F0F0EFA4F056
:1049D00063356333623361336033702FE2EFA4F0E9
:1049E00060C083F061C084F062C085F063C086F06F
:1049F0000C0E0001706F010170510001716F010117
:104A000071510001726F736B746B040E756F6CC023
:104A100076F06DC077F06EC078F06FC079F0756792
:104A200014EFA5F01CEFA5F079357933783377339F
:104A30007633752F0FEFA5F000017151765D606F31
:104A400072517759616F73517859626F7451795906
:104A5000636F0101705100017A6F01017151000112
:104A60007B6F7C6B7D6B040E7E6F6CC07FF06DC0C6
:104A700080F06EC081F06FC082F07E6742EFA5F0DB
:104A80004AEFA5F082358233813380337F337E2F26
:104A90003DEFA5F000017A517F5D646F7B51805935
:104AA000656F7C518159666F7D518259676F3FEC0C
:104AB000C0F0000170675FEFA5F067EFA5F0633508
:104AC0006333623361336033702F59EFA5F060C0F8
:104AD0008FF061C090F062C091F063C092F00E0E52
:104AE0000001706F8FC060F090C061F091C062F003
:104AF00092C063F06CC164F06DC165F0000E65BFDB
:104B0000FF0E666F676F3FECC0F0000170678BEFC0
:104B1000A5F093EFA5F063356333623361336033FF
:104B2000702F85EFA5F060C087F061C088F062C08B
:104B300089F063C08AF000018751832501011A6F53
:104B400000018851842101011B6F000189518521D9
:104B500001011C6F00018A51862101011D6F1AC1DC
:104B600060F01BC161F01CC162F01DC163F0050E55
:104B70000001646F000E656F000E666F000E676FB8
:104B80003FECC0F0800E00016025706F000E6121C7
:104B9000716F000E6221726F000E6321736F71C01E
:104BA00070F072C071F073C072F0736B72BF736992
:104BB00070C08BF071C08CF072C08DF073C08EF03D
:104BC0008BC06CF08CC06DF08DC06EF08EC06FF03D
:104BD0001200000E0001636F760E626F000E656FAB
:104BE000000E646FD7ECBCF062C099F063C09AF01D
:104BF000000199519A11D8A400EFA6F002EFA6F097
:104C000005EFA6F0F70E5BECBFF0000E0001636F3E
:104C1000760E626F000E656F010E646F29ECBDF0B9
:104C2000000E00019B6F000E636F000E626F95EC2B
:104C3000BFF0000162C067F063C068F0000E68BF9B
:104C4000FF0E696F6A6F9B51040D790EF324D96EC4
:104C5000000EF420DA6E67C0DEFF68C0DEFF69C0B8
:104C6000DEFF6AC0DEFF9B2B9B51800A790FD8A024
:104C70003CEFA6F03EEFA6F013EFA6F0000E636F38
:104C8000010E626F95ECBFF0000162C095F063C049
:104C900096F0000E96BFFF0E976F986F51ECC7F01D
:104CA00081C067F082C068F083C069F084C06AF098
:104CB000050E61EFA6F00001D8906A3369336833BE
:104CC0006733E82E5BEFA6F07DC06BF07EC06CF022
:104CD0007FC06DF080C06EF0040ED8906B376C37DB
:104CE0006D376E37E82E6DEFA6F079C06FF07AC0A1
:104CF00070F07BC071F07CC072F00C0ED8906F37F2
:104D0000703771377237E82E7EEFA6F06B516F1156
:104D1000736F6C517011746F6D517111756F6E51AD
:104D20007211766F6751731101011E6F0001685196
:104D3000741101011F6F0001695175110101206F8C
:104D400000016A5176110101216F8DC067F08EC09C
:104D500068F08FC069F090C06AF0050EB6EFA6F05B
:104D60000001D8906A33693368336733E82EB0EFB7
:104D7000A6F089C06BF08AC06CF08BC06DF08CC05F
:104D80006EF0040ED8906B376C376D376E37E82EA7
:104D9000C2EFA6F085C06FF086C070F087C071F0DA
:104DA00088C072F00C0ED8906F3770377137723739
:104DB000E82ED3EFA6F06B516F11736F6C51701129
:104DC000746F6D517111756F6E517211766F6751FD
:104DD00073110101266F0001685174110101276FE1
:104DE0000001695175110101286F00016A517611A6
:104DF0000101296F91C068F092C069F093C06AF018
:104E00000001676B955167110101226F00019651F6
:104E100068110101236F0001975169110101246F8D
:104E2000000198516A110101256F12002C04D8A4C9
:104E30001CEFA7F01EEFA7F02CEFA7F065BA23EF49
:104E4000A7F025EFA7F02CEFA7F0000E626E0F0180
:104E500036813689020E2C6E62A431EFA7F033EF53
:104E6000A7F03EEFA7F00F0136A539EFA7F03BEF13
:104E7000A7F03EEFA7F06294D6ECC3F065A243EF33
:104E8000A7F045EFA7F048EFA7F0A19831EFA8F001
:104E900062A04DEFA7F04FEFA7F05DEFA7F00F0175
:104EA00036A155EFA7F057EFA7F05DEFA7F09FEC05
:104EB000AEF0A088040E2C6E629062A862EFA7F09C
:104EC00064EFA7F06EEFA7F00F0136A96AEFA7F025
:104ED0006CEFA7F06EEFA7F094ECC5F062AC73EF47
:104EE000A7F075EFA7F0A1EFA7F00F0136AD7BEFAC
:104EF000A7F07DEFA7F08BEFA7F0000E3C6E730ECE
:104F00003B6E000E3D6E000E3E6E000E406E010EBA
:104F10003F6E5BECBEF0629C49ECC5F02750D8B404
:104F200094EFA7F096EFA7F097EFA7F0270627508A
:104F3000D8A49DEFA7F09FEFA7F0A1EFA7F0F6ECA4
:104F4000B5F062AAA6EFA7F0A8EFA7F0B2EFA7F01E
:104F50000F0136ABAEEFA7F0B0EFA7F0B2EFA7F0BE
:104F600044ECC1F062A2B7EFA7F0B9EFA7F0D0EF21
:104F7000A7F00F0136A3BFEFA7F0C1EFA7F0D0EF66
:104F8000A7F07F0E3C6E3B68000E3D6E000E3E6E3D
:104F9000000E406E010E3F6E5BECBEF0000E636EC5
:104FA000040E2C60D6EFA7F0D8EFA7F0DBEFA7F048
:104FB000A19831EFA8F00F0136A7E1EFA7F0E3EFDA
:104FC000A7F030EFA8F0000E4D6E62A6EAEFA7F052
:104FD000ECEFA7F030EFA8F064CF2DF02D30E832E1
:104FE000E8320F0B286E62962DB4F9EFA7F0FBEFB5
:104FF000A7F005EFA8F0430E2824D96EDA6A010E57
:10500000DA220101DF700DEFA8F0460E2824D96ED8
:10501000DA6A010EDA220101DF702850D8A413EFFA
:10502000A8F015EFA8F019EFA8F020ECBAF027EFE0
:10503000A8F0000E3C6E720E3B6E2D0E3D6E000E03
:105040003E6E000E406E000E3F6E5BECBEF04D2AD1
:10505000030E4D642EEFA8F030EFA8F0E5EFA7F0B7
:10506000A19812004CC297F04DC298F04EC299F030
:105070004FC29AF087C097F088C098F089C099F025
:105080008AC09AF0810E00018B6FFF0E8C6F97C063
:105090008DF098C08EF099C08FF09AC090F0180EE5
:1050A00057EFA8F0D89090338F338E338D33E82E9E
:1050B00052EFA8F08D518B25956F000E8C21966FC5
:1050C00096BF6CEFA8F0965109E1170E955DD8A038
:1050D0006CEFA8F06EEFA8F078EFA8F087C087F02B
:1050E00088C088F089C089F08AC08AF03CEFA9F0B6
:1050F00096BF7DEFA8F07FEFA8F0F0EFA8F095C085
:105100008BF0FF0E8C6FFF0E8D6F7F0E8E6F000E7B
:105110008F6F8B678EEFA8F096EFA8F08F358F33E7
:105120008E338D338C338B2F89EFA8F08CC091F0A8
:105130008DC092F08EC093F08FC094F00001915119
:1051400097158B6F925198158C6F935199158D6FA0
:1051500094519A158E6F8B518C118D118E11D8A48C
:10516000B4EFA8F0B6EFA8F0B8EFA8F06EEFA8F093
:1051700097C08BF098C08CF099C08DF09AC08EF0DB
:10518000200EC8EFA8F0D8908E338D338C338B333C
:10519000E82EC3EFA8F08B518C118D118E11D8B46D
:1051A000D4EFA8F0D6EFA8F0DEEFA8F09151972742
:1051B000925198239351992394519A23911D8B6F67
:1051C000921D8C6F931D8D6F941D8E6F8B51971751
:1051D0008C5198178D5199178E519A1734EFA9F069
:1051E00097C08BF098C08CF099C08DF09AC08EF06B
:1051F000200E00EFA9F0D8908E338D338C338B3393
:10520000E82EFBEFA8F08B518C118D118E11D8A4D4
:105210000CEFA9F00EEFA9F018EFA9F0000E976FB0
:10522000000E986F000E996F000E9A6F34EFA9F080
:10523000D89097358B6F98358C6F99358D6F9A35DF
:105240008E6F8B518C118D118E11D8B42AEFA9F06D
:105250002CEFA9F034EFA9F0000E976F000E986FB5
:10526000800E996FBF0E9A6F97C087F098C088F034
:1052700099C089F09AC08AF012000001686F00019D
:105280006851D8B446EFA9F048EFA9F06AEFA9F049
:1052900063BF4FEFA9F04DEFA9F06AEFA9F060C02E
:1052A00064F061C065F062C066F063C067F0641FBF
:1052B000651F661F671F642B000E65236623672327
:1052C00064C06AF065C06BF066C06CF067C06DF0DA
:1052D00072EFA9F060C06AF061C06BF062C06CF060
:1052E00063C06DF06051611162116311D8A47BEF4E
:1052F000A9F07DEFA9F087EFA9F0000E606F000E16
:10530000616F000E626F000E636F18EFAAF0960EC9
:10531000696F91EFA9F0692BD8906D336C336B33C3
:105320006A33000E6A15646F000E6B15656F000E10
:105330006C15666FFE0E6D15676F64516511661111
:105340006711D8A4A6EFA9F0A8EFA9F08BEFA9F0F8
:10535000B6EFA9F0692B010E6A27000E6B236C23B0
:105360006D23D8906D336C336B336A33000E6A153E
:10537000646F000E6B15656F000E6C15666FFF0E87
:105380006D15676F6451651166116711D8A4CBEF75
:10539000A9F0CDEFA9F0AAEFA9F0D5EFA9F0690720
:1053A000D8906A376B376C376D376CBFDAEFA9F07E
:1053B000DCEFA9F0E4EFA9F0020E6961E2EFA9F0D9
:1053C000E4EFA9F0CFEFA9F069B1E9EFA9F0EBEFB5
:1053D000A9F0ECEFA9F06C9FD890693369C064F034
:1053E000656B666B676B64C067F0666B656B646B5F
:1053F00064516A1365516B1366516C1367516D13D9
:105400006851D8B406EFAAF008EFAAF010EFAAF09E
:1054100063BF0FEFAAF00DEFAAF010EFAAF06D8FA7
:105420006AC060F06BC061F06CC062F06DC063F088
:105430001200A098010176517711D8B422EFAAF09A
:1054400024EFAAF032EFAAF076C1D9FF77C1DAFFD4
:10545000DFAE2DEFAAF02FEFAAF032EFAAF0A0886E
:10546000EEEFAAF0030E2B18D8A439EFAAF03BEF09
:10547000AAF03DEFAAF0000E2B6E2B50D8A443EFFC
:10548000AAF045EFAAF048EFAAF0A088EEEFAAF044
:10549000020E2B18D8A44FEFAAF051EFAAF065EF37
:1054A000AAF0010E0001606F000E616F000E626FC6
:1054B000000E636F020EEDECAFF060C076F161C0DC
:1054C00077F1030E2B6EEDEFAAF02B04D8A46BEF4F
:1054D000AAF06DEFAAF0EDEFAAF0400E246473EF8E
:1054E000AAF075EFAAF07AEFAAF0400E00016C6FF7
:1054F0007CEFAAF024C06CF000016C51245C246E97
:10550000800E01013D6F030E3E6F6CC06BF0875142
:10551000D8A48DEFAAF08FEFAAF0BEEFAAF0A2EF09
:10552000AAF040C1D9FF41C1DAFF3DC1E1FF3EC150
:10553000E2FFDFCFE7FF01013D4B3E2B404B412B0C
:1055400000016B0700016B51D8A4A9EFAAF0ABEFE3
:10555000AAF091EFAAF0C7EFAAF040C1D9FF41C16C
:10556000DAFF3DC1E1FF3EC1E2FFDFCFE7FF01010E
:105570003D4B3E2B404B412B00016B0700016B5113
:10558000D8A4C5EFAAF0C7EFAAF0ADEFAAF0245057
:10559000D8A4CDEFAAF0CFEFAAF0DEEFAAF0400E2C
:1055A0006C19D8A4D6EFAAF0D8EFAAF0DCEFAAF0D5
:1055B000020E2B6EDEEFAAF0030E2B6E010E606F53
:1055C000800E616F030E626F6CC063F0020EEDEC33
:1055D000AFF060C076F161C077F1A0881200000ED4
:1055E0000001756F000E746F000E6E6F000E6D6F10
:1055F000FCEFAAF0674B682B010E736F67C0F6FFD4
:1056000068C0F7FF000EF86E0800F550200AD8B405
:105610000CEFABF00EEFABF02DEFABF0F70E696FC8
:10562000FF0E6A6F67C0F6FF68C0F7FF000EF86EE6
:105630000800F5506B6F6C6B69516B276A516C23D6
:105640006C5109E1050E6B5DD8A029EFABF02BEF93
:10565000ABF02DEFABF0000E736F73C06FF0706B9B
:105660006F517011D8A437EFABF039EFABF0FAEF10
:10567000AAF043EFABF0000E6E6F010E6D6F674B3B
:10568000682B7DEFABF067C0F6FF68C0F7FF000E38
:10569000F86E0800F550696F6A6B6A51000AD8B459
:1056A00054EFABF07DEFABF069512B0AD8B43FEF6C
:1056B000ABF0060AD8B43BEFABF07DEFABF074C0B3
:1056C00060F075C061F0000E636F0A0E626FC2EC8D
:1056D000C6F067C0F6FF68C0F7FF000EF86E08005E
:1056E000F5500001605F000E615B300E6025746F45
:1056F000000E6121756F3FEFABF0D00E696FFF0EAA
:105700006A6F67C0F6FF68C0F7FF000EF86E08000A
:10571000F5506B6F6C6B69516B276A516C236C5140
